S01700004763634170706C69636174696F6E322E737265635A
S11300000C9452000C946F000C946F000C946F00CD
S11300100C946F000C946F000C946F000C946F00A0
S11300200C946F000C946F000C946F000C946F0090
S11300300C946F000C946F000C946F000C946F0080
S11300400C946F000C946F000C946F000C946F0070
S11300500C946F000C946F000C946F000C946F0060
S11300600C946F000C946F004E414E494E49545904
S1130070494E46CDCCCC3D0AD7233C17B7D138776F
S1130080CC2B329595E6241FB14F0A000020410085
S113009000C84200401C4620BCBE4CCA1B0E5AAECF
S11300A0C59D740011241FBECFEFD8E0DEBFCDBFC5
S11300B011E0A0E0B1E0E2E0F8E002C005900D92AA
S11300C0A430B107D9F721E0A4E0B1E001C01D924A
S11300D0A830B207E1F70E94C7000C94FF030C9408
S11300E000009093C5008093C40080E18093C10018
S11300F086E08093C20008958091C0008823E4F7CD
S11301008091C6000895AF92BF92CF92DF92EF9292
S1130110FF920F931F93CF93DF937C016B015A01DE
S1130120C0E0D0E087010C0F1D1F0E947C00F80185
S113013080838A3049F4108260E071E0C7010E9434
S1130140EC00009719F418C02196ECCF0E94E80047
S1130150F601608371838283938360E071E080E0C1
S113016090E00E94EC00009739F00E94E800F5014D
S11301706083718382839383DF91CF911F910F9169
S1130180FF90EF90DF90CF90BF90AF900895CF9302
S1130190DF93CDB7DEB76C970FB6F894DEBF0FBE12
S11301A0CDBF1D8A1E8A1F8A188E198E1A8E1B8E29
S11301B01C8E87E690E00E947100AE01475E5F4F9F
S11301C0BE016B5E7F4FCE0101960E948300F5CF86
S11301D0662777270C94180144E051E00E94F1004F
S11301E00895FA01A191B081009719F41097E1F0F4
S11301F0CD01DC01CD010D90002011F4C00113C02C
S1130200FB012191222319F02015D9F7F3CFFB012B
S11302102191201519F41E92119606C02223C1F7CC
S11302200D900020A1F7D001FA01A193B0830895A5
S1130230A0E0B0E0EEE1F1E00C94BF03EC016B014F
S11302406115710519F0FB01918380837E01FFEF35
S1130250EF1AFF0A0881802F90E00E946602892B22
S113026011F0E701F3CF0D3239F47E0182E0E80E9C
S1130270F11C098111E008C00B3229F47E0192E0DF
S1130280E90EF11C098110E0E701219743E050E0F9
S113029060E770E0CE010E946F02892BC1F42396BF
S11302A045E050E06BE670E0CE010E946F02892BBE
S11302B009F42596C114D10419F0F601D183C08341
S11302C01111F6C060E070E080E89FE7FAC043E0F7
S11302D050E068E670E0CE010E946F02892B59F469
S11302E0C114D10409F4E9C0F2E0EF0EF11CF601E7
S11302F0F182E082E2C020E030E0A901C0E0D0E079
S1130300F70180EDA82EA00E89E08A1530F1912F17
S11303109260B92E812F887012FF04C0811124C00D
S1130320219622C081112197A5E0B0E00E94AE037E
S1130330DC01CB01880F991FAA1FBB1F9C01AD01D3
S11303402A0D311D411D511D283989E938074807F7
S113035089E1580748F0166006C09EEFA9120AC04A
S113036013FD40C01860B12E8FEFE81AF80A00811F
S11303701B2DC6CF802F8F7D8534A1F580818D32D2
S113038011F4106106C08B3221F0319661E070E007
S113039004C08181329662E070E080538A3018F0A4
S11303A0E61BF70B1FC060E070E060389CE0790743
S11303B05CF4DB01AA0FBB1FAA0FBB1F6A0F7B1FD4
S11303C0660F771F680F711D3196DF0111978C91AD
S11303D080538A3050F314FF03C0719561957109FD
S11303E0C60FD71F11FF08C0C114D10429F0CF01D3
S11303F00197F60191838083CA01B9010E948C029E
S1130400212F2370233019F04B015C0106C04B01EE
S11304105C01B7FAB094B7F8B09420E030E0A901D9
S1130420C501B4010E948702882309F43EC0D7FFA6
S113043006C0D195C195D10907E810E002C00FE9C3
S113044010E06801F8E1CF1AD10890E2E92EF12C0E
S1130450CE15DF0574F0F80125913591459154913D
S1130460C501B4010E94ED024B015C01CE19DF0904
S1130470EFCF04501109F594E7940C151D0541F7CD
S11304808A2D880F8B2D881F8F3F49F020E030E0A4
S1130490A901C501B4010E948702811106C082E24C
S11304A090E09093070180930601C501B40109C04F
S11304B060E070E080E89FEF04C060E070E080ECF2
S11304C09FE7CDB7DEB7ECE00C94DB0391110C94FD
S11304D05A03803219F089508550C8F70895FB01FA
S11304E0DC014150504088F08D9181341CF08B35F3
S11304F00CF4805E659161341CF06B350CF4605E25
S1130500861B611171F3990B0895881BFCCF0E941F
S1130510C90208F481E00895E89409C097FB3EF409
S113052090958095709561957F4F8F4F9F4F99233C
S1130530A9F0F92F96E9BB279395F69587957795BA
S11305406795B795F111F8CFFAF4BB0F11F460FF7A
S11305501BC06F5F7F4F8F4F9F4F16C0882311F0D2
S113056096E911C0772321F09EE8872F762F05C0E6
S1130570662371F096E8862F70E060E02AF09A9581
S1130580660F771F881FDAF7880F9695879597F976
S11305900895990F0008550FAA0BE0E8FEEF161610
S11305A01706E807F907C0F012161306E407F50763
S11305B098F0621B730B840B950B39F40A2661F0D7
S11305C0232B242B252B21F408950A2609F4A1407A
S11305D0A6958FEF811D811D08950E9400030C9440
S11305E074030E94660338F00E946D0320F0952383
S11305F011F00C945D030C94630311240C94A80370
S11306000E94850370F3959FC1F3950F50E0551F29
S1130610629FF001729FBB27F00DB11D639FAA2753
S1130620F00DB11DAA1F649F6627B00DA11D661FA2
S1130630829F2227B00DA11D621F739FB00DA11DC3
S1130640621F839FA00D611D221F749F3327A00D7D
S1130650611D231F849F600D211D822F762F6A2F19
S113066011249F5750409AF0F1F088234AF0EE0F7E
S1130670FF1FBB1F661F771F881F91505040A9F7AB
S11306809E3F510580F00C945D030C94A8035F3FDA
S1130690E4F3983ED4F3869577956795B795F795E7
S11306A0E7959F5FC1F7FE2B880F911D969587955F
S11306B097F9089599278827089597F99F6780E8FF
S11306C070E060E008959FEF80EC089500240A94A0
S11306D01616170618060906089500240A94121619
S11306E01306140605060895092E0394000C11F44C
S11306F0882352F0BB0F40F4BF2B11F460FF04C0F9
S11307006F5F7F4F8F4F9F4F089557FD9058440F51
S1130710551F59F05F3F71F04795880F97FB991F5C
S113072061F09F3F79F08795089512161306140619
S1130730551FF2CF4695F1DF08C0161617061806A6
S1130740991FF1CF86957105610508940895E89481
S1130750BB2766277727CB0197F908950E94F003FA
S1130760A59F900DB49F900DA49F800D911D112401
S113077008952F923F924F925F926F927F928F9241
S11307809F92AF92BF92CF92DF92EF92FF920F931C
S11307901F93CF93DF93CDB7DEB7CA1BDB0B0FB626
S11307A0F894DEBF0FBECDBF09942A8839884888E3
S11307B05F846E847D848C849B84AA84B984C88479
S11307C0DF80EE80FD800C811B81AA81B981CE0F70
S11307D0D11D0FB6F894DEBF0FBECDBFED01089555
S11307E0A29FB001B39FC001A39F700D811D11246E
S11307F0911DB29F700D811D1124911D0895F894CF
S1050800FFCF24
S10708022C200000A2
S9030000FC
