:100000000C940A050C9427050C9427050C942705DD
:100010000C9427050C9427050C9427050C942705B0
:100020000C9427050C9427050C9427050C94241098
:100030000C9427050C9427050C9427050C94270590
:100040000C9427050C9427050C9427050C94270580
:100050000C9427050C9427050C9427050C94270570
:100060000C9427050C9427054E414E494E4954598E
:10007000494E46CDCCCC3D0AD7233C17B7D1387773
:10008000CC2B329595E6241FB14F0A000020410089
:1000900000C84200401C4620BCBE4CCA1B0E5AAED3
:1000A000C59D74BF0003030304030504070D00FE90
:1000B00009FE0BFF017F02FB0953200500EE07211B
:1000C00007D2C3C7130122089DDE87844500230F92
:1000D000CEC24F28CBA1128A1C2AA12C002412E6E2
:1000E000BA5F3476894C62C3596412B945630025FE
:1000F00010CEC24F8C3249A149629494092D022638
:1001000010CEC2974C1292C464934964A24922272C
:100110000823DB8F841202280C64BF97442411E962
:100120004D2413290D64BF874C2413E94524110184
:100130002A0EBEC65F4892521255524431002B0B14
:10014000B6C6975074280945002C0823BB8F84122B
:10015000022D0796CEC7A1002E0692C307012F0ECF
:10016000E6BEA79A504D2813AA098500300CCEC2CE
:10017000978C22E249421301310A4CC397E41011D3
:10018000E901320DCEC20F454412CAD462070333CF
:100190000ECEC20F4544128AA624928402340FCE9A
:1001A000C29F6C29228A4842129B5002350ECEC251
:1001B0000F891425858424928402360ECEC2D74836
:1001C000261456444C120A00370DCEC2C7C11694ED
:1001D00009654235003810CEC20F4544924842A40A
:1001E000488924A100390DCEC20F45C42429AA890B
:1001F00046003A07B2C30791003B0943BB8FBA845C
:1002000012023C08CEC2A74C571D3D08AECAC7A17A
:100210007C283E09CEC28754371D013F0FD6C20F3E
:10022000454412CA14E530A10800400FCEC2D74899
:100230004289482A2189652225410ECEC297508DD8
:1002400014114524B79900420DCEC24745C414A9E4
:1002500088982E00430CCEC2D74842D455229A002B
:10026000440CCEC207491411F1294202450ECEC2F8
:10027000C7213614452AA2885076460FCEC2C72120
:100280003614452AA288501100470DCEC2D74842E5
:10029000542991244A04480BCEC28788D361C449AB
:1002A000004909CEC28749A84F064A0BCEC2174D56
:1002B000A88B4E23004B0ECEC287881491849824BD
:1002C0003A91044C08CEC28750BF1D4D0FCEC24795
:1002D000707438442293C86C4D004E0CCEC2878C8B
:1002E0004492E8C436134F0BCEC20F45C44F120AD6
:1002F00000500BCEC24745C474116A04510DDEBADA
:100300000F45C4538532A14A03520ECEC24745C49D
:10031000749184244A2401530ECEC20F45441C120A
:100320008724090500540BCEC2C7451212EA1300F8
:10033000550ACEC287883F4928005610CEC2876C26
:1003400016D11292C466426908005710CEC2876C5B
:100350004B6412B9902421490400580FCEC28788FB
:1003600024918486C251448924590CCEC2878824A2
:100370009184867A025A0BCEC2C74D51A628931D8E
:100380005B08E5BEC74DFF565C0EE6BE87502A549B
:10039000154A85AA42015D08E5BE474DFF765E0815
:1003A0009EDA978C22125F0796BEC7A100600823D1
:1003B000DB8744240A610CBEC20F4922949C4892F8
:1003C00002620ED6C287508B644262AA5024006338
:1003D0000BBEC20F4544D424A100640CD6C2A7169C
:1003E00009A5C465A200650DBEC20F45443A0C457F
:1003F000120A00660DD6C2DF4812128A4C429D00D6
:10040000670CCEBACF89CB449124A100680CD6C228
:1004100087508B6442E24900690BD6C297500E1A8E
:10042000EAC9006A0CE5BA9F324D6F14C904006B2B
:100430000FD6C287501329220991244A24016C083F
:10044000D6C2CF507F326D0FBEC2874472B84426E9
:1004500091496492006E0ABEC287443221F1246F32
:100460000ABEC20F45C4938402700ECEBA874432CE
:10047000213155288A4200710BCEBA8F8452E23264
:100480005154720ABEC2C7445211EA06730BBEC26F
:100490000F454465925000740CCEC28F505612EA3C
:1004A000229A007509BEC287882F1305760DBEC239
:1004B000876C16D1129B4943007710BEC2876C121D
:1004C000994426918B24248900780DBEC287881414
:1004D0001A0A472192007911CEBA876C16918424AA
:1004E000B199341411CD007A09BEC2C769A66D74E2
:1004F0007B0CE6BEDF48A86936156A1D7C07E2BFA3
:10050000C787017D0DE6BEC754A87536126A9A01E9
:100510007E0AA6DA8FA822294900A008A6BE475065
:100520007830A107D2BB07E970A210CEBE6F84223B
:10053000A28424A1D944420A02A30CCEC2D748A265
:100540001B4D183B18A40CB6C687E8100965398402
:1005500004A50ECEC28788494231894C421100A6BB
:1005600008E2BFC7617818A710DDBACF4425368AE4
:10057000E8129A45542600A80795E2878422A91319
:1005800057BED72C25245192C424318948252D36B5
:1005900002AA0BC5CACF506291500F03AB09A6CA7D
:1005A0008F84A24922AC08A6C6C7A1A800AD071433
:1005B000CFC72100AE1457BED72C2522924C242938
:1005C0004A928924B7D80800AF0796E2C7A100B0C5
:1005D0000AA5DACF4442914C00B10CC6C2975074C0
:1005E0002809458702B20BBDD2CF444D248A1D068F
:1005F000B30CBDD2CF444D24A4482600B40824DB5C
:1006000097442906B50CCEBA8788A7C324321402B2
:10061000B610CEC2CFA112A9688A8822A288282249
:10062000B70692CF0701B80824BB8F4C5401B90715
:100630003BD34F450FBA0BC5CACF44C222191F0680
:10064000BB0BA6CA87442451A14800BC13EEBA8F45
:100650006CA82952194964A3882822AA4900BD110F
:10066000EEBA8F6CA8454299454612A1485629BE5C
:1006700015EEBACF4822934A2493CA48221B454418
:1006800011514D02BF0FD6BA97500E13CA1445240C
:10069000090500C010DEC2C7540E13CA48115144E8
:1006A000729B09C110DEC2DF480E13CA48115144C3
:1006B000729B09C211DEC2D74822870865A4882828
:1006C00022B9CD04C310DEC28F641D24949122A2EE
:1006D00088E43613C410DEC28FEE10A18C141145CD
:1006E00024B79900C510DEC2974C1213AA9122A21A
:1006F00088E43613C6114FC25769388BC8229488D4
:10070000A814128508C70DDEBAD74842D455229ADC
:10071000A901C80FDEC2C7540E39C486155144283A
:100720003BC90FDEC2DF480E39C486155144283B51
:10073000CA0FDEC2D748223EC486155144283BCB9F
:100740000EDEC28FCE87D8B0228A086507CC0BDEBA
:10075000C2C7540E3109F564CD0BDEC2DF480E313D
:1007600009F564CE0BDEC2D748223609F564CF0AFC
:10077000DEC28FCE26A19E0CD0114FC20F4D145257
:10078000115994242289284402D10DDEC28F645D60
:10079000462249746213D20DDEC2C7540EA288F8F5
:1007A00024A100D30DDEC2DF480EA288F824A100E8
:1007B000D40DDEC2D74822A788F824A100D50DDECB
:1007C000C28F641D4211F1494201D60CDEC28FEE88
:1007D00014119F241400D70BAECA8748429351448A
:1007E00002D810DEBE6F8422A2540E950A494289B7
:1007F00002D90CDEC2C7540E11F1938402DA0CDE6A
:10080000C2DF480E11F1938402DB0CDEC2D748220E
:1008100016F1938402DC0BDEC28FCE227E92500052
:10082000DD0FDEC2DF480E11912492D0502700DE8A
:100830000DCEC287505811315D844200DF0ED6C202
:10084000CF48A24B48A2C48B0400E00FDEC28F54F5
:100850001A07912442C9892429E10FDEC2A74C1846
:1008600007912442C9892429E20FDEC2978C940E95
:1008700021498492134952E310DEC2574A25148756
:10088000902442C9892429E40DD6C28FEE248950D0
:100890007222490AE510DEC2974C1293834812A1D6
:1008A000E4449214E60EBEC2CF411292442CA288B8
:1008B000E400E70CCEBA0F4544D424A1A901E81006
:1008C000DEC28F541A075144A4C35024A100E9107A
:1008D000DEC2A74C18075144A4C35024A100EA105B
:1008E000DEC2978C940EA1884887A1484201EB0E86
:1008F000D6C28FEE1411E93014492800EC0BDEC289
:100900008F541A070DF564ED0BDEC29F621C36D4BE
:100910009301EE0CDEC2978C940E19EAC900EF0B1E
:10092000D6C287443B64A82703F010D6C28744345C
:10093000920447121227090500F10EDEC2574A251C
:1009400014974826249E04F20EDEC28F541A0751D3
:10095000443C492800F30EDEC2A74C180751443C22
:10096000492800F40EDEC2978C940EA1887892502C
:1009700000F50FDEC2574A25148750443C49280031
:10098000F60CD6C28FEE14114F120A00F70DC6C234
:1009900097500E39D421421100F80ECEBE6F84223A
:1009A000A21C2A2409250AF90CDEC28F541A878852
:1009B000F83251FA0CDEC2A74C188788F83251FB86
:1009C0000CDEC2978C942EE2CB4401FC0AD6C28F77
:1009D000CE22BE4C14FD15EEBAA74C1887C866117E
:1009E0004948129B494311D10C00FE0FE6BA8750CB
:1009F0008B644262AA50148500FF12E6BA8FCEB211
:100A000059441292C466D25044340300000004FFDB
:100A1000FF00000011241FBECFEFD8E0DEBFCDBF26
:100A200011E0A0E0B1E0EAECFFE202C005900D9217
:100A3000A03BB107D9F726E0A0EBB1E001C01D92C1
:100A4000AE32B207E1F70E9401110C94E3170C9447
:100A500000000F931F93DC01ED91FC911197208909
:100A600092960D911C919397629FB0011124660F8D
:100A7000771F660F771F660F771F060F171F60E03F
:100A80000E949B0D1F910F910895EF92FF920F937B
:100A90001F93CF93DF938C01DC019496FC90949785
:100AA0009596DC919597ED91FC91E188C0E04D2FF2
:100AB0006C2FC8010E942905CF5FDF5FCF1510F4AE
:100AC000DE15A8F3DF91CF911F910F91FF90EF906A
:100AD0000895FC01A081B18150969C9144A1949FFE
:100AE000A0011124440F551F440F551F440F551FDB
:100AF00060E070E082A193A10E9427120895CF9335
:100B0000DF93EC010E944505CE010E94DF0DDF91CD
:100B1000CF91089528E0FC01208382EB91E00895B5
:100B2000CF92DF92EF92FF920F931F93CF93DF93B9
:100B30001F92CDB7DEB77C016B0189019A014BE1B1
:100B40005DE063E77EE00E94B80ECE0101960E9450
:100B50008A0586012DEF3AE04981BC01C7010E9458
:100B6000310C0F90DF91CF911F910F91FF90EF907B
:100B7000DF90CF900895860F911DFC018491089518
:100B8000FC01E60FF11D849190E03196982F8827A3
:100B9000E4918E0F911D089580E090E008958059B2
:100BA0009F4FFC018081082E000C990B019608953F
:100BB0000F931F93CF93DF93EC018B0160E0C8018B
:100BC0000E94BB05888361E0C8010E94BB05898340
:100BD00062E0C8010E94BB058A8363E0C8010E94ED
:100BE000BB058B8364E0C8010E94BB058C8365E074
:100BF000C8010E94BB058D8366E0C8010E94BB0549
:100C00008E8367E0C8010E94BB058F8368E0C8013E
:100C10000E94BB05888769E0C8010E94BB058987DF
:100C20006AE0C8010E94BB058A876BE0C8010E9488
:100C3000BB058B876CE0C8010E94BB058C876DE00B
:100C4000C8010E94BB058D876EE0C8010E94BB05EC
:100C50008E876FE0C8010E94BB058F8760E1C801E5
:100C60000E94BB05888B61E1C8010E94C0059A8B78
:100C7000898B63E1C8010E94C0059C8B8B8B65E169
:100C8000C8010E94C0059E8B8D8BDF91CF911F9173
:100C90000F910895DC011A964C911A97ED91FC91F1
:100CA0001197249130E0042E02C0359527950A94BF
:100CB000E2F7822F942F960F983080F088E0841B03
:100CC00031961196FC93EE93E491F0E002C0EE0FA2
:100CD000FF1F8A95E2F78E2F822B985021E030E09B
:100CE00002C0220F331F6A95E2F721501A969C9397
:100CF000822308950F931F93CF93DF93EC018C0110
:100D0000085B1F4FF80171836083128673966081C0
:100D1000C8010E944A06F801808774966081C80164
:100D20000E944A06F8018187BC968081F801848779
:100D300091E0811190E0C85BDF4F9D87DF91CF91FB
:100D40001F910F910895CF93C62F0E944A06C1505C
:100D500021E030E002C0220F331FCA95E2F7821B68
:100D6000CF910895213049F018F0223059F00FC08A
:100D7000840F911D47FD9A950895860F911D67FD7B
:100D80009A950895841B910947FD93950895861BB4
:100D9000910967FD93950895213049F018F02230AC
:100DA00059F00FC0860F911D67FD9A950895841B19
:100DB000910947FD93950895861B910967FD9395C9
:100DC0000895840F911D47FD9A9508956F927F9223
:100DD0008F929F92AF92BF92CF92DF92EF92FF924B
:100DE0000F931F93CF93DF937C01162F742EFC017A
:100DF000E85BFF4F9680D781F701E85BFF4FC08526
:100E0000C9191C1710F06C2E01C0612EF701E85BA8
:100E1000FF4FC480D58006858D2E202F4D2F692D44
:100E2000828193810E94CC065C01202F4D2F692D79
:100E3000C6010E94B206772071F0F701E85BFF4F10
:100E40002485BC962083262D30E0AC01B501C70176
:100E50000E94240A10C0F701E85BFF4F238521118F
:100E60000AC02585BC962083262D30E0AC01B50153
:100E7000C7010E94240A1C1720F01C1BDF5F912C65
:100E8000BBCF612F690DF701E85BFF4F6683878257
:100E9000DF91CF911F910F91FF90EF90DF90CF9056
:100EA000BF90AF909F908F907F906F9008956F92BA
:100EB0007F928F929F92AF92BF92CF92DF92EF92EA
:100EC000FF920F931F93CF93DF93EC017C0188E493
:100ED000E80EF11CCE010E947A06FE01EF5AFF4F88
:100EE000C0803C966081C7010E94A306782EFE0157
:100EF000E25AFF4F6081C7010E94A306182FFE012E
:100F0000E15AFF4F6081C7010E94A306D82EF70166
:100F1000608416140CF09BC006851C0D1195202FC3
:100F2000412F672D828193810E94CC065C01F701DD
:100F300093838283202F412F672D848195810E9486
:100F4000B206F70195838483013089F028F00230DE
:100F500001F10330A1F143C09501260D311D67FC5D
:100F60003A958C010C0D111DC7FC1A953AC0A501CC
:100F70004C195109C7FC539595012F5F3F4F8C01C8
:100F8000060D111D67FC1A95BA016F5F7F4F5B015B
:100F900028C0A5014619510967FC539595012F5F9B
:100FA0003F4FBC016C197109C7FC73958C010F5F31
:100FB0001F4FCB010196FA0131965F0112C09501D6
:100FC0002C0D311DC7FC3A95AC014619510967FC3F
:100FD00053958C010F5F1F4FCA01019602C08C010F
:100FE0009501AC01B501CE010E94D80A882379F1A0
:100FF000FE01E85BFF4F16821782FE01E75AFF4FA2
:101000006081C7010E944A06082FFE01E65AFF4F81
:101010006081C7010E944A06182F40E0602FCE0170
:101020000E94E60641E0612FCE010E94E60661E0E3
:10103000C7010E944A068111F0CFFE01E85BFF4F15
:1010400087818C15D4F28485CC58DF4F88838D2D11
:10105000DF91CF911F910F91FF90EF90DF90CF9094
:10106000BF90AF909F908F907F906F900895EF9278
:10107000FF920F931F93CF93DF93FC01EC5BFF4F25
:10108000C081D18167966F3F710509F038F56136EF
:10109000710530F0B69680819181C80FD91F0AC0C2
:1010A0006134710538F0FC01E859FF4F808191816E
:1010B000C80FD91FCE010196FC012491222309F407
:1010C0003CC0FE01249130E06217730711F40196D1
:1010D00039C0FC018491C80FD11DECCF8B01FC01FC
:1010E000E459FF4F80819181C80FD91F7E0160E0D4
:1010F000C7010E94C005C80FD91F62E0C7010E9446
:10110000C005F4E0EF0EF11C8017910780F3FE019B
:10111000849190E0982F88273196E4918E2B009748
:1011200079F00817190719F4CE0103960BC0FE01D8
:101130003296E491CE0FD11DEACF80E090E002C05C
:1011400080E090E0DF91CF911F910F91FF90EF90A1
:101150000895CF93DF93EC01FC01E65BFF4F7183B1
:101160006083329651834083B9010E94370800970B
:1011700041F0BC01CE010E945707082E000C990BCC
:1011800002C080E090E0DF91CF910895CF92DF928E
:10119000EF92FF920F931F93CF93DF93EC018B019C
:1011A0007A016901FC01EA5AFF4F8081813089F0A0
:1011B00028F08230C9F0833011F12BC0FE01EA5BC8
:1011C000FF4F0190F081E02DCE010995E80EF91E48
:1011D00020C0FE01EA5BFF4F0190F081E02DCE01BF
:1011E0000995081B190B15C0FE01EA5BFF4F019022
:1011F000F081E02DCE010995E81AF90A0AC0FE0136
:10120000EA5BFF4F0190F081E02DCE010995080FB8
:10121000191F9601A701B801CE010E94A908DF910C
:10122000CF911F910F91FF90EF90DF90CF90089595
:10123000AF92BF92CF92DF92EF92FF920F931F93E4
:10124000CF93DF93EC015B016A0189010E946E0C70
:10125000E12CF12CEA81FB81D8016C91CE0109953A
:101260008F3FBFEF9B0739F10F5F1F4F8E3F2FEF6F
:10127000920781F39C01A601B501CE010E94C60828
:101280009C01FE01EA5AFF4F9081913049F028F00D
:10129000923049F0933051F00BC0A20EB31E08C03B
:1012A000C20ED31E05C0A21AB30A02C0C21AD30AC4
:1012B000E20EF31ECFCFC701DF91CF911F910F91A7
:1012C000FF90EF90DF90CF90BF90AF900895E1E650
:1012D000FCE0DC011396FC93EE9312970E94180930
:1012E0000895FC01EC5BFF4F20813181232BE1F15C
:1012F000B09620813C9620833B9740813C9640836A
:1013000032973081332381F1313079F4399730814C
:10131000231714F43A963083FC01E959FF4F2081DA
:10132000241714F53A9620830895022E000C330BEF
:10133000FC01EF59FF4FE081DC01AD59BF4F5C91DB
:10134000652F052E000C770B6E0F711DE7FD7A954A
:10135000261737071CF41D96E50FEC93541724F459
:10136000FC01EF58FF4F50830895FC01E159FF4FF6
:1013700010820E94710908958A5B9F4F2CEC35E022
:10138000FC013183208308958A5B9F4F2FEC35E069
:10139000FC01318320830895CF93DF93FC01EC5B44
:1013A000FF4F208131812617370751F0EC017183FF
:1013B0006083895A9F4F0E94D805CE010E9471090F
:1013C000DF91CF910895CF93DF93EC01A881B9818C
:1013D000EB01E881F981EA0FFB1FEA17FB0738F4FC
:1013E000A217B30718F4F901319701C0DA01A21767
:1013F000B307A8F44E175F07A0F4A417B50708F0C9
:10140000AD012E173F0708F09F01FC015183408377
:10141000241B350BEB013983288381E003C080E076
:1014200001C080E0DF91CF9108950F93DC019A967F
:10143000ED91FC919B974E1B5F0B5E96ED91FC919D
:101440005F9709950F910895EF92FF920F931F9365
:10145000CF93DF9300D000D000D0CDB7DEB77A8332
:1014600069835C834B833E832D83FC01E259FF4FEC
:101470002081222309F474C02D813E81211531057C
:1014800009F46EC022303105B0F0023041F4621B25
:10149000730B9B012F5F3F4F3A8329830CC00330AE
:1014A00051F44B815C81DA01A21BB30B9D012F5FCC
:1014B0003F4F3C832B837C01102F117000FD1DC01A
:1014C000FC0120AD31AD8B819C818217930708F41C
:1014D00047C022AD33AD8217930708F041C026A95B
:1014E00037A944A955A9BE016B5F7F4FCE01019674
:1014F0000E94E309811123C033C0DC01D4962D91F1
:101500003C91D59789819A818217930748F1D696A5
:101510002D913C91D7978217930710F5DA962D916C
:101520003C91DB97D8964D915C91D997BE016B5F4A
:101530007F4FCE0103960E94E309882389F0D701EB
:101540009096ED91FC9191970480F581E02D2D818D
:101550003E814B815C8169817A81012FC7010995A8
:1015600026960FB6F894DEBF0FBECDBFDF91CF91A8
:101570001F910F91FF90EF9008954617570740F481
:101580008217930768F02417350760F481E0089507
:101590008217930748F42417350740F481E0089533
:1015A00081E0089580E0089580E0089580E0089546
:1015B000CF92DF92EF92FF920F931F93CF93DF931F
:1015C000EC017B01690198016AAD7BAD88AD99ADF5
:1015D0000E94BD0A882341F06EA97FA99601A70148
:1015E0008CA99DA90E94BD0ADF91CF911F910F91F7
:1015F000FF90EF90DF90CF9008950F931F93CF93BC
:10160000DF93DC01CA01542F5770C1E0D0E0052EF2
:1016100002C0CC0FDD1F0A94E2F71C2FFD01EC582D
:10162000FF4FE081E23010F040E001C04C2FE1308C
:1016300009F410E0887FED91FC911197C089C89F53
:10164000F001C99FF00D112492968D919C91939772
:101650006E0F7F1FFC01E60FF71F011108C080818C
:10166000842B8127819321503109C9F721C09081B2
:10167000942B912790835F5F57702150310951114E
:1016800010C096968D919C919797E80FF91FED01E8
:10169000CC58DF4F8881823008F441E0813021F45A
:1016A00004C0440F110F01C011E021153105F9F6F6
:1016B000DF91CF911F910F910895CF93DF93FC019C
:1016C000A081B18184A190E09C01220F331F220FE1
:1016D000331F220F331F31A720A750962C9150970C
:1016E00030E0220F331F220F331F220F331F37A387
:1016F00026A375A1272F30E0A901440F551F440FE1
:10170000551F440F551F53A742A7280F391F519645
:101710006C915197C62FD0E0C217D30718F4CE01B1
:10172000871B9109880F991F880F991F880F991F90
:1017300055A744A7840F951F97A786A754968D9108
:101740009C91559791AB80AB56968D919C915797F4
:1017500093AB82ABDF91CF9108950E945D0B08950A
:101760000F931F93CF93DF93EC01FC01EE5BFF4FD0
:10177000008111812EAD3FAD3297408151816CAD1A
:101780007DAD0E94D80A811104C0C259DF4F188272
:101790002FC081E0FE01E259FF4F80832CA93DA9B3
:1017A0008CAD9DAD2817390710F49DAB8CAB2EA9DD
:1017B0003FA98EAD9FAD8217930710F49FAB8EAB00
:1017C00028AD39ADFE01E05CFF4F80819181281783
:1017D000390710F499AF88AF2AAD3BADFE01EE5B3F
:1017E000FF4F808191818217930710F49BAF8AAFDE
:1017F000DF91CF911F910F910895FC0115AA14AAB2
:1018000080A991A997AB86AB84A595A591AF80AF30
:1018100086A597A593AF82AFCF010E94B00B089524
:101820000F930E94150A0F910895DC01DD961C921A
:101830001E92DC97FC01E05CFF4F118210822FEFBB
:101840003FEFFC0137AF26AFEE5BFF4F31832083C4
:101850009096ED91FC9191970280F381E02D09958E
:1018600008950F931F93CF93DF93EC01FC01EC5B82
:10187000FF4F118210823F8F2E8F7BA36AA34CA350
:101880001DA23F961082B096108234971082359632
:1018900081E080833196808319A308A3D801ED915C
:1018A000FC91CE010995CE010E94150CCE010E943B
:1018B000BC09CA5ADF4F1882DF91CF911F910F9157
:1018C0000895662329F06A3031F0862F90E008955C
:1018D0008FEF9FEF08958FEF9FEF0895FC01108E1B
:1018E0000895462FDC011896ED91FC91199720E0A0
:1018F00030E060E2099508959A01DC011896ED91B7
:10190000FC911997462F67E109950895CF93DF93CE
:101910001F92CDB7DEB76983AE014F5F5F4F61E0C5
:101920000E947C0C0F90DF91CF910895462FDC012F
:101930001696ED91FC91179720E030E065E109954E
:101940000895462FDC011696ED91FC91179720E043
:1019500030E066E1099508959A01DC011696ED9153
:10196000FC911797462F67E109950895DC011696BB
:10197000ED91FC91179720E030E040E068E1099597
:101980000895DC011696ED91FC91179720E030E068
:1019900040E069E109950895EF92FF920F931F933C
:1019A000CF93DF931F92CDB7DEB77C018B01D801B7
:1019B0006D918D016731B9F018F4653130F433C0A1
:1019C0006A31E8F06E3F31F12EC0FD0141918F0187
:1019D0004983D7011696ED91FC91179720E030E0EE
:1019E000C7010995E4CFFD0181918F018983AE0183
:1019F0004F5F5F4F61E0C7010E94AC0CD8CFD701A9
:101A00001696ED91FC91179720E030E040E0C70179
:101A10000995CDCFFD0141918F01498369E2C7014D
:101A20000E94960EC4CF0F90DF91CF911F910F911E
:101A3000FF90EF900895EF92FF920F931F93CF9333
:101A4000DF938C01C62FD42F79016631A1F028F4E1
:101A50006431E9F0653131F025C06731A9F06A31B0
:101A600008F515C060E00E94710C6D2FC8010E943E
:101A7000860C81E018C060E00E94710C6D2FC801D7
:101A80000E94860C81E00FC061E00E94710CD801B9
:101A90001896ED91FC91199797014D2F6C2FC80165
:101AA000099501C080E0DF91CF911F910F91FF90C8
:101AB000EF900895FC0171836083FB012289FC0192
:101AC000248B0895CF93DF93EC01EA85FB8520E01A
:101AD00030E040E068E20995EE81FF8120E030E0EF
:101AE00040E064E1CE01099541E06BE4CE010E9443
:101AF000960EE881F981448169E2CE010E94960E3A
:101B000040E06BE4CE010E94960EE881F9814481A9
:101B100069E2CE010E94960E41E06BE4CE010E9484
:101B2000960EE881F981458169E2CE010E94960E08
:101B3000DF91CF9108950F931F93CF93DF9300D040
:101B400000D01F92CDB7DEB76C834D832B831A83F1
:101B50000983DC011496ED91FC9115979E012F5F8E
:101B60003F4F41E06FE009950F900F900F900F905D
:101B70000F90DF91CF911F910F910895DC01149682
:101B8000ED91FC91159720E030E040E069E0099587
:101B90000895DC011496ED91FC91159720E030E05A
:101BA00040E06AE009950895462FDC011496ED9116
:101BB000FC91159720E030E06BE009950895DC0179
:101BC0001496ED91FC91159720E030E040E060E143
:101BD00009950895EF92FF920F931F93CF93DF9390
:101BE0008C01C42F79016D30B9F018F46B3031F0ED
:101BF00072C06E3069F16F30D1F16DC0411106C015
:101C000061E371E00E94CC0C81E066C06CE271E09F
:101C10000E94CC0C81E060C041110DC065E271E012
:101C20000E94CC0CD801ED91FC91119782895496B9
:101C30008C9381E051C06EE171E00E94CC0CD80120
:101C4000ED91FC911197838954968C9381E044C067
:101C50000E94B60C61E8C8010E94960C6C2FC80166
:101C60000E94A10CC8010E94C10C81E035C00E94F5
:101C7000B60CF701D381DD0FDD0FDD0FD8015496CF
:101C80008C91D80F60E4C8010E94960C6D2F62956C
:101C90006F706061C8010E94960C6D2F6F70C80153
:101CA0000E94A10CF7016481606BC8010E94A10C25
:101CB000D70112966C9112974D915C91660F660F49
:101CC000660FC8010E94AC0CC15091F7C8010E9478
:101CD000C10C81E001C080E0DF91CF911F910F9195
:101CE000FF90EF9008950F931F93CF938C01C62F11
:101CF0000E94EA0D811115C0C93061F0CA3091F41B
:101D0000C8010E94620D66E371E0C8010E94CC0C1C
:101D100081E008C066E071E0C8010E945A0D81E0D0
:101D200001C081E0CF911F910F910895DC011A96B7
:101D3000ED91FC911B9720E030E00995089580E03B
:101D40000895FC01118210828FE99EE095838483BF
:101D5000978386839187808793878287158A108EE1
:101D600014861586168617868FEF868B828F0895C8
:101D7000AF92BF92CF92DF92EF92FF920F931F9399
:101D8000CF93DF93EC015B016A0179010E94A10E00
:101D9000BD82AC82DF82CE82F986E8861B870A8705
:101DA000CE010E94BE0DDF91CF911F910F91FF9048
:101DB000EF90DF90CF90BF90AF9008951092B90050
:101DC00080E28093B80008950F931F9394EA909354
:101DD000BC004FEF50E060E070E002C0B901A80124
:101DE0009091BC00992354F08A019B010150110984
:101DF00021093109452B462B472B81F79091B900DA
:101E0000987F983011F0903109F78093BB0094E8E7
:101E10009093BC004FEF50E060E070E002C0B90169
:101E2000A8019091BC00992354F08A019B010150B4
:101E3000110921093109452B462B472B81F7909138
:101E4000B900987F903211F09835C9F494E99093D5
:101E5000BC004FEF50E060E070E002C0B901A801A3
:101E60009091BC0094FFB2CF8A019B0101501109EF
:101E700021093109452B462B472B81F7A7CF1F910D
:101E80000F91089584E98093BC008FEF90E0A0E06B
:101E9000B0E002C0DB01CA012091BC0024FF0AC0EF
:101EA000AC01BD014150510961097109892B8A2B8F
:101EB0008B2B81F708958093BB0084E88093BC004E
:101EC0008FEF90E0A0E0B0E002C0DB01CA012091FA
:101ED000BC00222364F0AC01BD01415051096109ED
:101EE0007109892B8A2B8B2B81F7DB01CA01892B86
:101EF0008A2B8B2B39F08091B900887F883221F0B2
:101F000081E0089581E0089580E008950F931F9384
:101F1000CF936831F9F028F46431C1F0673181F072
:101F200004C06931E9F06032F9F080E01EC0890137
:101F30000F5F1F4FF90180810E945B0F4C2F9801AA
:101F4000CFEFC40F4111F3CF81E00FC00E94DE0E2E
:101F500081E00BC0FC0186890E94E40E81E005C08F
:101F60000E94420F81E001C081E0CF911F910F914B
:101F700008956A3211F118F4693261F104C06B32CC
:101F800021F06C3269F180E00895242F30E0A4E65E
:101F9000B0E00E94041224EF31E040E050E00E94E3
:101FA000E2112332F8F4822F0197F1F781E00895CE
:101FB0009AE19A95F1F700C0482F8FEF840F4111F5
:101FC000F7CF81E00895EFECF7E03197F1F700C02B
:101FD0000000482F8FEF840F4111F5CF81E0089565
:101FE00081E0089581E008958AB184618AB91092F0
:101FF00080008AE08093810080ED97E090938900D3
:102000008093880082E080936F0078940895109206
:10201000B5051092B40580E293E09093B3058093E8
:10202000B2051092850010928400E1E8F0E0808112
:10203000826080830895E1E8F0E080818D7F808375
:102040008BB18B7F8BB908951F920F920FB60F92B1
:1020500011242F933F934F935F936F937F938F93AD
:102060009F93AF93BF93EF93FF932091B40530916B
:10207000B5058091B2059091B3052817390770F422
:102080009BB184E089278BB98091B4059091B50507
:1020900001969093B5058093B40502C00E941B1071
:1020A000FF91EF91BF91AF919F918F917F916F9130
:1020B0005F914F913F912F910F900FBE0F901F9006
:1020C00018958BB180618BB90E9407102091B405DF
:1020D0003091B5058091B2059091B3052817390765
:1020E000A8F308958BB18F7E8BB90E9407102091C1
:1020F000B4053091B5058091B2059091B3052817CC
:102100003907A8F308959093C5008093C40080E137
:102110008093C10086E08093C20008958091C00042
:102120008823E4F78091C6000895AF92BF92CF92C2
:10213000DF92EF92FF920F931F93CF93DF937C0177
:102140006B015A01C0E0D0E087010C0F1D1F0E94F7
:102150008E10F80180838A3049F410826BE671E0BA
:10216000C7010E942212009719F418C02196ECCFE3
:102170000E941E12F60160837183828393836BE653
:1021800071E080E090E00E942212009739F00E94F6
:102190001E12F5016083718382839383DF91CF9157
:1021A0001F910F91FF90EF90DF90CF90BF90AF9075
:1021B00008954B9B02C080E0089581E00895EAE70E
:1021C000F0E080818064808390917A00892F807410
:1021D00096FDFACF2091780030917900213031407E
:1021E00008F081E00895ECE7F0E080E48083AAE75E
:1021F000B0E087E08C938C9180688C9380818083A1
:102200000895CF93DF93CDB7DEB7E0970FB6F8947C
:10221000DEBF0FBECDBF29EB3FE046E85FE060E0E8
:1022200071E086EB95E00E94900588E78093CC05ED
:1022300086EB95E00E94C90D60E086EB95E00E9478
:10224000D40D86EB95E00E94690563EA70E086EBA9
:1022500095E00E94CC0986EB95E00E94B50986EBDB
:1022600095E00E94C4092EE631E040E050E060E0D5
:1022700070E086EB95E00E94670986EB95E00E948E
:102280007F051D8A1E8A1F8A188E198E1A8E1B8E34
:102290001C8E87E690E00E9483100E94F40F8AB1A2
:1022A000877F8AB98BB188608BB90E94F310AE0129
:1022B000475E5F4FBE016B5E7F4FCE0101960E946D
:1022C0009510888D8F938F898F938E898F938D89A9
:1022D0008F9380E891E09F938F931F921AE01F9352
:1022E0007E0187E2E80EF11CFF92EF920E945512E8
:1022F0008C8D8F938B8D8F938A8D8F93898D8F93F8
:1023000087E891E09F938F931F921F938E01035E46
:102310001F4F1F930F930E94551286EB95E00E946A
:10232000690597014AE050E064E170E086EB95E0D2
:102330000E94670998014EE150E064E170E086EB8D
:1023400095E00E9467090FB6F894DEBF0FBECDBFBF
:102350000E94D9108823E1F30E9461100E94DF10CF
:10236000813009F0A4CF86EB95E00E9469052EE844
:1023700031E042E350E064E170E086EB95E00E94DA
:10238000670986EB95E00E947F050E94D910813095
:10239000E1F30E9472100E94DF10811188CF86EB5A
:1023A00095E00E9469052EE931E046E450E064E1E1
:1023B00070E086EB95E00E94670986EB95E00E944D
:1023C0007F0575CFA1E21A2EAA1BBB1BFD010DC014
:1023D000AA1FBB1FEE1FFF1FA217B307E407F507D5
:1023E00020F0A21BB30BE40BF50B661F771F881FB1
:1023F000991F1A9469F760957095809590959B0147
:10240000AC01BD01CF010895A29FB001B39FC001EF
:10241000A39F700D811D1124911DB29F700D811D10
:102420001124911D08950E940412A59F900DB49F40
:10243000900DA49F800D911D112408956627772784
:102440000C94661440EB51E00E942E120895DC01BA
:1024500001C06D9341505040E0F70895FA01A191F9
:10246000B081009719F41097E1F0CD01DC01CD01A6
:102470000D90002011F4C00113C0FB012191222313
:1024800019F02015D9F7F3CFFB012191201519F48C
:102490001E92119606C02223C1F70D900020A1F7CD
:1024A000D001FA01A193B0830895AEE0B0E0EBE56E
:1024B000F2E10C94BA170D891E898F89988D26E058
:1024C0002C831A83098397FF02C080E090E801976C
:1024D0009E838D83AE01455E5F4F698D7A8DCE01FF
:1024E00001960E9485124D815E8157FD0AC02F81A1
:1024F0003885421753070CF49A01F801E20FF31FD5
:1025000010822E96E4E00C94D617ABE0B0E0EBE836
:10251000F2E10C94AC176C017B018A01FC0117827B
:102520001682838181FFCCC1CE0101963C01F60168
:102530009381F70193FD859193FF81917F0188231A
:1025400009F4BAC1853239F493FD859193FF8191E5
:102550007F01853229F4B60190E00E94EB15E7CFA8
:10256000912C212C312CFFE1F315D8F08B3279F02E
:1025700038F4803279F08332A1F4232D20611DC01C
:102580008D3261F0803369F4232D216016C0832DD4
:102590008260382EE32DE4603E2E2AC0F32DF860D1
:1025A0001DC037FC2DC020ED280F2A3040F08E32A0
:1025B000B9F436FC81C1232D2064322E19C036FEB9
:1025C00006C08AE0989E200D1124922E11C0EAE0E8
:1025D0002E9E200D1124222EF32DF0623F2E08C0D6
:1025E0008C3621F4832D8068382E02C0883641F461
:1025F000F70193FD859193FF81917F018111B3CF05
:10260000982F9F7D9554933028F40C5F1F4F9FE3C4
:1026100099830DC0833631F0833771F0833509F02B
:1026200059C021C0F801808189830E5F1F4F882423
:102630008394912C530113C02801F2E04F0E511CDA
:10264000F801A080B18036FE03C0692D70E002C0A1
:102650006FEF7FEFC5010E94E0154C018201F32D61
:10266000FF773F2E16C0280122E0420E511CF801D0
:10267000A080B18036FE03C0692D70E002C06FEF0C
:102680007FEFC5010E94D5154C01F32DF0683F2E58
:10269000820133FC1BC0822D90E088169906B0F4AD
:1026A000B60180E290E00E94EB152A94F4CFF50188
:1026B00037FC859137FE81915F01B60190E00E9461
:1026C000EB1521102A9421E0821A910881149104BB
:1026D00071F7E8C0843611F0893641F5F80137FE0C
:1026E00007C060817181828193810C5F1F4F08C098
:1026F00060817181072E000C880B990B0E5F1F4FB4
:10270000F32DFF763F2E97FF09C090958095709529
:1027100061957F4F8F4F9F4FF0683F2E2AE030E04A
:10272000A3010E942716882E861845C0853731F4EC
:10273000232D2F7EB22E2AE030E025C0932D997FE5
:10274000B92E8F36C1F018F4883579F0B5C08037CE
:1027500019F0883721F0B0C0E92FE061BE2EB4FE39
:102760000DC0FB2DF460BF2E09C034FE0AC0292F16
:102770002660B22E06C028E030E005C020E130E03F
:1027800002C020E132E0F801B7FE07C0608171812C
:10279000828193810C5F1F4F06C06081718180E050
:1027A00090E00E5F1F4FA3010E942716882E861807
:1027B000FB2DFF773F2E36FE0DC0232D2E7FA22E40
:1027C000891458F434FE0BC032FC09C0832D8E7E70
:1027D000A82E05C0B82CA32C03C0B82C01C0B92C5E
:1027E000A4FE0FC0FE01E80DF11D8081803321F4AD
:1027F0009A2D997EA92E09C0A2FE06C0B394B39467
:1028000004C08A2D867809F0B394A3FC11C0A0FE01
:1028100006C0B21488F4280C922C9B180EC0B21477
:1028200060F4B60180E290E00E94EB15B394F7CF1C
:10283000B21418F42B1802C0982C212CA4FE10C03E
:10284000B60180E390E00E94EB15A2FE17C0A1FC48
:1028500003C088E790E002C088E590E0B6010CC0B4
:102860008A2D867859F0A1FE02C08BE201C080E279
:10287000A7FC8DE2B60190E00E94EB15891438F4B4
:10288000B60180E390E00E94EB159A94F7CF8A940A
:10289000F301E80DF11D8081B60190E00E94EB1577
:1028A0008110F5CF222009F442CEB60180E290E0FB
:1028B0000E94EB152A94F6CFF6018681978102C01B
:1028C0008FEF9FEF2B96E2E10C94C817A0E0B0E0E9
:1028D000ECE6F4E10C94B217EC016B0161157105A3
:1028E00019F0FB01918380837E01FFEFEF1AFF0A4D
:1028F0000881802F90E00E94B415892B11F0E70128
:10290000F3CF0D3239F47E0182E0E80EF11C09812B
:1029100011E008C00B3229F47E0192E0E90EF11CAF
:10292000098110E0E701219743E050E060E770E0A3
:10293000CE010E94BD15892BC1F4239645E050E0DD
:102940006BE670E0CE010E94BD15892B09F4259637
:10295000C114D10419F0F601D183C0831111F6C05E
:1029600060E070E080E89FE7FAC043E050E068E68E
:1029700070E0CE010E94BD15892B59F4C114D10419
:1029800009F4E9C0F2E0EF0EF11CF601F182E082F9
:10299000E2C020E030E0A901C0E0D0E0F70180ED26
:1029A000A82EA00E89E08A1530F1912F9260B92EE1
:1029B000812F887012FF04C0811124C0219622C08B
:1029C00081112197A5E0B0E00E941312DC01CB0138
:1029D000880F991FAA1FBB1F9C01AD012A0D311D35
:1029E000411D511D283989E93807480789E15807F1
:1029F00048F0166006C09EEFA9120AC013FD40C041
:102A00001860B12E8FEFE81AF80A00811B2DC6CF8F
:102A1000802F8F7D8534A1F580818D3211F4106176
:102A200006C08B3221F0319661E070E004C08181F4
:102A3000329662E070E080538A3018F0E61BF70BA4
:102A40001FC060E070E060389CE079075CF4DB0157
:102A5000AA0FBB1FAA0FBB1F6A0F7B1F660F771F32
:102A6000680F711D3196DF0111978C9180538A3068
:102A700050F314FF03C0719561957109C60FD71FFC
:102A800011FF08C0C114D10429F0CF010197F6014C
:102A900091838083CA01B9010E948A16212F237075
:102AA000233019F04B015C0106C04B015C01B7FA01
:102AB000B094B7F8B09420E030E0A901C501B401AA
:102AC0000E948516882309F43EC0D7FF06C0D19521
:102AD000C195D10907E810E002C00FE910E06801D4
:102AE000F8E1CF1AD10890E2E92EF12CCE15DF05DE
:102AF00074F0F8012591359145915491C501B401C7
:102B00000E94EB164B015C01CE19DF09EFCF045098
:102B10001109F594E7940C151D0541F78A2D880FCE
:102B20008B2D881F8F3F49F020E030E0A901C501BF
:102B3000B4010E948516811106C082E290E0909354
:102B40002D0680932C06C501B40109C060E070E039
:102B500080E89FEF04C060E070E080EC9FE7CDB7B5
:102B6000DEB7ECE00C94CE1791110C94581780321C
:102B700019F089508550C8F70895FB01DC014150D8
:102B8000504088F08D9181341CF08B350CF4805EC0
:102B9000659161341CF06B350CF4605E861B61112D
:102BA00071F3990B0895881BFCCFFC0105906150CF
:102BB00070400110D8F7809590958E0F9F1F089553
:102BC000FC016150704001900110D8F780959095FC
:102BD0008E0F9F1F08950F931F93CF93DF93FB01D9
:102BE000238121FD03C08FEF9FEF2CC022FF16C071
:102BF00046815781248135814217530744F4A081CF
:102C0000B1819D012F5F3F4F318320838C932681BB
:102C100037812F5F3F4F3783268314C08B01EC0130
:102C2000FB010084F185E02D0995892BE1F6D8019F
:102C300016968D919C911797019617969C938E935B
:102C40001697CE01DF91CF911F910F910895FA0150
:102C5000AA27283051F1203181F1E8946F936E7FDB
:102C60006E5F7F4F8F4F9F4FAF4FB1E03ED0B4E0CC
:102C70003CD0670F781F891F9A1FA11D680F791F0D
:102C80008A1F911DA11D6A0F711D811D911DA11D1E
:102C900020D009F468943F912AE0269F112430192E
:102CA000305D3193DEF6CF010895462F4770405DC9
:102CB0004193B3E00FD0C9F7F6CF462F4F70405D78
:102CC0004A3318F0495D31FD4052419302D0A9F7D3
:102CD000EACFB4E0A6959795879577956795BA95CD
:102CE000C9F700976105710508959B01AC010A2E93
:102CF00006945795479537952795BA95C9F7620F6A
:102D0000731F841F951FA01D08950E94C71608F405
:102D100081E00895E89409C097FB3EF49095809572
:102D2000709561957F4F8F4F9F4F9923A9F0F92F91
:102D300096E9BB279395F695879577956795B7950F
:102D4000F111F8CFFAF4BB0F11F460FF1BC06F5FF5
:102D50007F4F8F4F9F4F16C0882311F096E911C007
:102D6000772321F09EE8872F762F05C0662371F028
:102D700096E8862F70E060E02AF09A95660F771F3C
:102D8000881FDAF7880F9695879597F90895990F18
:102D90000008550FAA0BE0E8FEEF16161706E80725
:102DA000F907C0F012161306E407F50798F0621B46
:102DB000730B840B950B39F40A2661F0232B242B1B
:102DC000252B21F408950A2609F4A140A6958FEF3A
:102DD000811D811D08950E94FE160C9472170E9499
:102DE000641738F00E946B1720F0952311F00C94B3
:102DF0005B170C94611711240C94A6170E9483177B
:102E000070F3959FC1F3950F50E0551F629FF0013D
:102E1000729FBB27F00DB11D639FAA27F00DB11D56
:102E2000AA1F649F6627B00DA11D661F829F2227DF
:102E3000B00DA11D621F739FB00DA11D621F839F66
:102E4000A00D611D221F749F3327A00D611D231F3C
:102E5000849F600D211D822F762F6A2F11249F578A
:102E600050409AF0F1F088234AF0EE0FFF1FBB1F8D
:102E7000661F771F881F91505040A9F79E3F51054C
:102E800080F00C945B170C94A6175F3FE4F3983E18
:102E9000D4F3869577956795B795F795E7959F5FF6
:102EA000C1F7FE2B880F911D9695879597F9089588
:102EB00099278827089597F99F6780E870E060E078
:102EC00008959FEF80EC089500240A9416161706C3
:102ED00018060906089500240A941216130614060B
:102EE00005060895092E0394000C11F4882352F06E
:102EF000BB0F40F4BF2B11F460FF04C06F5F7F4F26
:102F00008F4F9F4F089557FD9058440F551F59F00C
:102F10005F3F71F04795880F97FB991F61F09F3FC6
:102F200079F087950895121613061406551FF2CFEF
:102F30004695F1DF08C0161617061806991FF1CF3F
:102F400086957105610508940895E894BB27662766
:102F50007727CB0197F908952F923F924F925F9276
:102F60006F927F928F929F92AF92BF92CF92DF9299
:102F7000EF92FF920F931F93CF93DF93CDB7DEB7FE
:102F8000CA1BDB0B0FB6F894DEBF0FBECDBF099492
:102F90002A88398848885F846E847D848C849B84E9
:102FA000AA84B984C884DF80EE80FD800C811B81F7
:102FB000AA81B981CE0FD11D0FB6F894DEBF0FBE26
:0A2FC000CDBFED010895F894FFCF96
:102FCA00AD0BFD0B100C0001140A646432320012BE
:102FDA007A000004289610080000800040001815A6
:102FEA00A015C019FF1815A115C819FF1815AE1993
:102FFA00FF1815AF19FF1815AE15D5168015A816A6
:10300A003F15D316001540158D16141520160015F8
:10301A00A115C815DA1602158116CF15D916F1159C
:10302A00DB1640152E15A415A619FF2C200042699F
:10303A006E205069636B696E6720526F626F74000D
:10304A00583D252E336600593D252E3366004772BA
:10305A0061626265642074686520626F78005265F7
:10306A006C65617365642074686520626F7800001E
:00000001FF
