:100000000C9434000C9451000C9451000C94510049
:100010000C9451000C9451000C9451000C9451001C
:100020000C9451000C9451000C9451000C9451000C
:100030000C9451000C9451000C9451000C945100FC
:100040000C9451000C9451000C94D2000C9451006B
:100050000C9451000C9451000C9451000C945100DC
:100060000C9451000C94510011241FBECFEFD8E026
:10007000DEBFCDBF11E0A0E0B1E0EEE9F2E002C0EA
:1000800005900D92A832B107D9F721E0A8E2B1E0BE
:1000900001C01D92A433B207E1F70E94FC000C944A
:1000A0004D010C9400008AB184618AB908951092C0
:1000B000C50083E08093C40088E98093C10086E096
:1000C0008093C2008AB182608AB98AB18E7F8AB970
:1000D00008954B9BFECF2FEF80E792E021508040A8
:1000E0009040E1F700C00000809128018F5F80936D
:1000F000280108959091C00095FFFCCF8093C60021
:100100000895CF93DF93EC0103C021960E947A00FB
:1001100088818111FACFDF91CF9108958BB18061F1
:100120008BB920E030E010C08BB184608BB985E8DA
:100130008A95F1F700008BB18B7F8BB985E88A95A2
:10014000F1F700002F5F3F4F809100019091010176
:10015000281739074CF382E091E00E94810008954E
:100160008BB18F7E8BB920E030E010C08BB1846002
:100170008BB985E88A95F1F700008BB18B7F8BB93D
:1001800085E88A95F1F700002F5F3F4F80910001CD
:1001900090910101281739074CF383E191E00E9407
:1001A000810008951F920F920FB60F9211248F9322
:1001B0009F93EF93FF938091C600E091290191E016
:1001C0009E0F90932901F0E0E65DFE4F80838091C1
:1001D00029018A3010F010922901E0912901F0E004
:1001E000E65DFE4F1082FF91EF919F918F910F90EE
:1001F0000FBE0F901F901895CF93DF93CDB7DEB74A
:100200002A970FB6F894DEBF0FBECDBF0E945300F1
:100210000E94570078946AE271E0CE0101960E9434
:10022000460189818823B9F300E010E00FC084E221
:1002300091E00E9481002FEF80E792E02150804002
:100240009040E1F700C000000F5F1F4F0A3011051A
:1002500074F30E94690080912801813081F40E942A
:100260008E008FEC97E00197F1F700C000000E942C
:10027000690080912801823011F40E94B0008091C1
:100280002801823041F610922801C5CFFB01DC0124
:0E02900001900D920020E1F70895F894FFCF41
:10029E00C80047726970706572204F70656E656434
:1002AE000D0A004772697070657220436C6F73653A
:0802BE00640D0A0041434B00EE
:00000001FF
