S01F000046696E616C5F436F64655F576974686F75745F4F4C45442E737265636B
S11300000C9434000C9451000C9451000C94510045
S11300100C9451000C9451000C9451000C94510018
S11300200C9451000C9451000C9451000C94510008
S11300300C9451000C9451000C9451000C945100F8
S11300400C9451000C9451000C94BE000C9451007B
S11300500C9451000C9451000C9451000C945100D8
S11300600C9451000C94510011241FBECFEFD8E022
S1130070DEBFCDBF11E0A0E0B1E0ECE4F2E002C0ED
S113008005900D92A230B107D9F721E0A2E0B1E0CA
S113009001C01D92AE30B207E1F70E94E8000C9453
S11300A024010C9400008AB184618AB908958BB14B
S11300B080618BB920E030E014C08BB184608BB9CF
S11300C08FE693E00197F1F700C000008BB18B7FBE
S11300D08BB98FE693E00197F1F700C000002F5F22
S11300E03F4F8091000190910101281739072CF3AB
S11300F008958BB18F7E8BB920E030E014C08BB1B2
S113010084608BB98FE693E00197F1F700C000009B
S11301108BB18B7F8BB98FE693E00197F1F700C029
S113012000002F5F3F4F809100019091010128173B
S113013039072CF308951092C50087E08093C4001A
S113014088E98093C10086E08093C2008AB182600E
S11301508AB98AB18E7F8AB908954B9BFECF2FEF5F
S113016081EE94E0215080409040E1F700C000000F
S1130170809102018F5F8093020108951F920F9274
S11301800FB60F9211248F939F93EF93FF93809157
S1130190C600E091030191E09E0F90930301F0E00B
S11301A0EC5FFE4F8083809103018A3010F010923F
S11301B00301E0910301F0E0EC5FFE4F1082FF9138
S11301C0EF919F918F910F900FBE0F901F901895F4
S11301D0CF93DF93CDB7DEB72A970FB6F894DEBF7F
S11301E00FBECDBF0E9453000E949B00789464E030
S11301F071E0CE0101960E941D0189818823B9F323
S11302000E94AD0080910201813081F40E94570068
S11302108FE99FE00197F1F700C000000E94AD0054
S113022080910201823011F40E94790080910201D0
S11302308230E9F610920201DACFFB01DC01019071
S10F02400D920020E1F70895F894FFCF20
S105024CF401B7
S9030000FC
