S012000046696E616C5F636F64652E737265632E
S11300000C9434000C9451000C9451000C94510045
S11300100C9451000C9451000C9451000C94510018
S11300200C9451000C9451000C9451000C94510008
S11300300C9451000C9451000C9451000C945100F8
S11300400C9451000C9451000C94BD000C9451007C
S11300500C9451000C9451000C9451000C945100D8
S11300600C9451000C94510011241FBECFEFD8E022
S1130070DEBFCDBF11E0A0E0B1E0EEE6F2E002C0E9
S113008005900D92A832B107D9F721E0A8E2B1E0BA
S113009001C01D92A433B207E1F70E94E7000C945B
S11300A035010C9400008AB184618AB908951092D4
S11300B0C50083E08093C40088E98093C10086E092
S11300C08093C200519A509808954B9BFECF2FEF16
S11300D080E792E0215080409040E1F700C00000AA
S11300E0809128018F5F8093280108959091C0002A
S11300F095FFFCCF8093C6000895CF93DF93EC0166
S11301008991882319F00E947600FACFDF91CF916C
S113011008955C9A80E090E0209100013091010103
S11301208217930764F45A9A25E82A95F1F7000098
S11301305A9825E82A95F1F700000196EDCF82E060
S113014091E00C947D005C9880E090E020910001A7
S1130150309101018217930764F45A9A25E82A958D
S1130160F1F700005A9825E82A95F1F70000019666
S1130170EDCF83E191E00C947D001F920F920FB6B6
S11301800F9211248F939F93EF93FF938091C60056
S1130190E091290191E09E0F90932901F0E0E65D42
S11301A0FE4F8083809129018A3010F0109229013A
S11301B0E0912901F0E0E65DFE4F1082FF91EF919E
S11301C09F918F910F900FBE0F901F901895CF9312
S11301D0DF93CDB7DEB72A970FB6F894DEBF0FBE14
S11301E0CDBF0E9453000E94570078946AE271E0E8
S11301F0CE0101960E942E0189818823B9F30AE079
S113020010E084E291E00E947D002FEF80E792E00D
S1130210215080409040E1F700C0000001501109D6
S113022081F70E94650080912801813081F40E9449
S113023089008FEC97E00197F1F700C000000E945D
S1130240650080912801823011F40E94A3008091FE
S11302502801823059F610922801C8CFFB01DC0135
S111026001900D920020E1F70895F894FFCF6D
S113026EC80047726970706572204F70656E656460
S113027E0D0A004772697070657220436C6F736566
S10B028E640D0A0041434B001A
S9030000FC
