:100000000C948C010C94A9010C94A9010C94A901E5
:100010000C94A9010C94A9010C94A9010C94A901B8
:100020000C94A9010C94A9010C94A9010C94A901A8
:100030000C94A9010C94A9010C94A9010C94A90198
:100040000C94A9010C94A9010C94A9010C94A90188
:100050000C94A9010C94A9010C94A9010C94A90178
:100060000C94A9010C94A901BC5F9C60A4618462FA
:10007000B6639664B0659F66B5678968A969FFFF36
:100080000000000000000000002F0000000007003A
:10009000070000147F147F1400242A7F2A120062B4
:1000A0006408132300364955225000000503000060
:1000B00000001C224100000041221C000014083EE8
:1000C00008140008083E0808000000A060000008AE
:1000D0000808080800006060000000201008040202
:1000E000003E5149453E0000427F400000426151C0
:1000F0004946002141454B31001814127F1000275A
:1001000045454539003C4A4949300001710905031C
:1001100000364949493600064949291E000036364D
:1001200000000000563600000008142241000014B0
:10013000141414140000412214080002015109068D
:1001400000324959513E007C1211127C007F49490E
:100150004936003E41414122007F4141221C007F3F
:1001600049494941007F09090901003E4149497A4D
:10017000007F0808087F0000417F410000204041C7
:100180003F01007F08142241007F40404040007F33
:10019000020C027F007F0408107F003E4141413E77
:1001A000007F09090906003E4151215E007F0919BF
:1001B00029460046494949310001017F0101003FBC
:1001C0004040403F001F2040201F003F4038403F3C
:1001D00000631408146300070870080700615149A0
:1001E000454300007F41410000552A552A55000033
:1001F00041417F00000402010204004040404040B1
:10020000000001020400002054545478007F484448
:10021000443800384444442000384444487F00387F
:100220005454541800087E0901020018A4A4A47CA8
:10023000007F080404780000447D40000040808472
:100240007D00007F102844000000417F4000007CBA
:1002500004180478007C08040478003844444438C6
:1002600000FC242424180018242418FC007C080412
:10027000040800485454542000043F444020003CEB
:100280004040207C001C2040201C003C4030403C72
:10029000004428102844001CA0A0A07C0044645402
:1002A0004C4400000877410000000063000000009B
:1002B00041770800000804080804003A4040207A0A
:1002C000003D4040403D002154545479007D1211BE
:1002D000127D003944444439003D4242423D00020F
:1002E00005020000007E01495573007C1010081CB7
:1002F000003048204830005C6202625CAE2000B0F2
:10030000C8001040813FA1A6A83FA4D300D5F0D9D2
:1003100022DA12DB208D140011241FBECFEFD8E0AB
:10032000DEBFCDBF11E0A0E0B1E0E4E5F9E002C03E
:1003300005900D92A232B107D9F721E0A2E2B1E017
:1003400001C01D92A532B207E1F70E9489040C9406
:10035000A8040C9400001092B90088E48093B800BF
:1003600084E08093BC00089594EA9093BC0020E45C
:1003700031E009C02150310931F4809124018160BC
:100380008093240108959091BC0099231CF02115BD
:10039000310581F78093BB0084E88093BC0080E442
:1003A00091E008C0019731F480912401826080932C
:1003B000240108952091BC00222314F0009791F7A6
:1003C000089584E98093BC0008958093BB0084E87D
:1003D0008093BC0080E491E008C0019731F48091E3
:1003E000240184608093240108952091BC0022237D
:1003F00014F0009791F708950F931F93CF93DF9315
:100400008C01D62F88E70E94B40180E00E94E501AC
:10041000C0E007C0F801EC0FF11D80810E94E501EA
:10042000CF5FCD17B8F30E94E101DF91CF911F910B
:100430000F910895EF92FF920F931F93CF93DF9345
:100440007C018B0188E70E94B40180E40E94E501F1
:10045000C0E0D0E007C0F701EC0FFD1F80810E94D3
:10046000E5012196C017D107B0F30E94E101DF91A9
:10047000CF911F910F91FF90EF900895CF93DF934D
:1004800000D000D0CDB7DEB7813890F4683080F46A
:10049000E2E2F1E0808361836055698391E29A83AF
:1004A0008B838FE78C8364E0CE0101960E94FC0170
:1004B0000F900F900F900F90DF91CF910895982F8C
:1004C000990F980F892F880F0E943E02089560E0CF
:1004D00080E00E945F0208951F93CF93DF93CDB712
:1004E000DEB7C058D1090FB6F894DEBF0FBECDBF3E
:1004F000FE01319680E8DF011D928A95E9F710E050
:100500000BC0612F80E00E945F0260E870E0CE01C6
:1005100001960E941A021F5F183098F30E9467022A
:10052000C058DF4F0FB6F894DEBF0FBECDBFDF91CE
:10053000CF911F9108951F93CF93DF93CDB7DEB76F
:100540006C970FB6F894DEBF0FBECDBF182F0E9478
:10055000AB0120E00EC0822F90E0FC01E450FD4F83
:10056000E491A1E0B0E0AC0FBD1FA80FB91FEC9360
:100570002F5F2B3180F31C8F6CE1CE0101960E941E
:10058000FC010E946C026C960FB6F894DEBF0FBEA1
:10059000CDBFDF91CF911F910895CF93DF9300D00E
:1005A000CDB7DEB791E899838A8362E0CE010196E8
:1005B0000E94FC010F900F90DF91CF910895CF9290
:1005C000DF92EF92FF920F931F93CF93DF93CDB7FC
:1005D000DEB76C970FB6F894DEBF0FBECDBF893083
:1005E00001F118F4883039F052C08A30E9F18D30C9
:1005F00009F447C04CC002E211E0F80180819091FB
:1006000000016181891B0E945F0280E20E94DF027B
:10061000F8018081909100016181891B0E945F0235
:1006200059C18091220190910001292F30E0220FC1
:10063000331F220F331FB901680F711D45E150E0D0
:10064000FA01E21BF30B6E177F0740F4990F990F25
:1006500060912301890F0E945F023CC160912301D8
:1006600085E10E945F0236C180912301873008F046
:1006700031C160910001680F809122010E945F02E8
:1006800029C16091230180E00E945F0223C1509143
:1006900022015A3708F01EC1803208F41BC1805273
:1006A000E9E6F0E0E4918E1798F423C0F901EE0F2B
:1006B000FF1FE859FF4FE491F0E0B097282F30E09A
:1006C000E217F30719F4FB01849110C09F5F01C08A
:1006D00090E0292F30E0F901EE0FFF1FBF016759AD
:1006E0007F4FFB0144914F3F09F78FEF8F3F09F494
:1006F000F1C090910001923009F0BEC0252F30E08A
:10070000245F3F4F2138310508F0E4C0F12C4FC081
:100710006F2D70E0FB01EE0FFF1F21E030E02C0F8A
:100720003D1FE20FF31F15861486282F30E0F901D4
:10073000EE0FFF1FE20FF31FEE0FFF1FE60FF71F75
:10074000E058FF4FE49090E02FC0A92FB0E02E2D8D
:1007500030E0092E02C0359527950A94E2F720FF74
:1007600022C0AA0FBB1F21E030E069010A2E02C09F
:10077000CC0CDD1C0A94E2F78B01000F111FE1E0A5
:10078000F0E0EC0FFD1FE00FF11F448555854C296B
:100790005D29119602C0220F331FAA95E2F7242B80
:1007A000352B358724879F5F983078F2F39435E0B6
:1007B0003F1508F0ADCF20E015C0822F90E0880FE4
:1007C000991FE1E0F0E0EC0FFD1FE80FF91F348501
:1007D00030830196E1E0F0E0EC0FFD1FE80FF91F18
:1007E00030832F5F263048F36CE070E0CE01019635
:1007F0000E941A02E2E2F1E081818F54898F81E246
:100800008A8F80818B8F8FE78C8F64E0CE01499631
:100810000E94FC0120E015C0822F90E0880F991FF4
:10082000E1E0F0E0EC0FFD1FE80FF91F35853083A4
:100830000196E1E0F0E0EC0FFD1FE80FF91F3083B7
:100840002F5F263048F36CE070E0CE0101960E94E5
:100850001A0202E211E0F80181818055898F8081BE
:10086000845F8B8F64E0CE0149960E94FC01F80101
:100870008081845F80832EC0252F30E02A5F3F4F28
:100880002138310538F590E018C0282F30E0492F85
:1008900050E0F901EE0FFF1FE20FF31FEE0FFF1FF5
:1008A000E40FF51FE058FF4FE491A1E0B0E0AC0F7A
:1008B000BD1FA40FB51FEC939F5F963030F366E029
:1008C00070E0CE0101960E941A02E2E2F1E080811E
:1008D0008A5F80836C960FB6F894DEBF0FBECDBFE3
:1008E000DF91CF911F910F91FF90EF90DF90CF900C
:1008F0000895809300010895CF93DF93EC0103C026
:1009000021960E94DF0288818111FACFDF91CF9179
:1009100008958FEA0E949B020E946C0280E00E9470
:10092000CD0261E084E00E945F0281E091E00E94DC
:100930007C0482E00E94790464E080E00E945F020F
:100940008DE091E00E947C0481E00E947904FFCF59
:04095000F894FFCF49
:10095400014E6F726D616C2053697A6500202044EA
:100964006F75626C6520200D0A20202053697A651A
:02097400000081
:00000001FF
