:100000000C9488000C94A5000C94A5000C94A500F9
:100010000C94A5000C94A5000C94A5000C94A500CC
:100020000C94A5000C94A5000C94A5000C94A500BC
:100030000C94A5000C94A5000C94A5000C94A500AC
:100040000C94A5000C94A5000C94A5000C94A5009C
:100050000C94A5000C94A5000C94A5000C94A5008C
:100060000C94A5000C94A50007040D040D040D04C8
:100070000D040D040D040D040D040D040D040D04F8
:100080000D040D040D040D040D040D040D040D04E8
:100090000D040D040D040D040D040D040D040D04D8
:1000A0000D04DD034E0371030D04EF030D040D0475
:1000B0000D040D040D040D040D040D040D040D04B8
:1000C0000D040D04FC030D049E030D040D04BC037C
:1000D0000D040D040D040D040D040D040D040D0498
:1000E0000D04CB034E0358030D04EF030D040D0460
:1000F0000D040D040D040D040D040D040D040D0478
:100100000D040D04FC030D048F030D040D04AD0359
:1001100011241FBECFEFD8E0DEBFCDBF13E0A0E0BB
:10012000B1E0E0EBFCE002C005900D92A031B10718
:10013000D9F723E0A0E1B3E001C01D92A331B207DB
:10014000E1F70E9450040C9456060C940000E9EB71
:10015000F0E080818C7F808388E48093B8000895EC
:1001600080931003ECEBF0E08081846A80838091BF
:10017000BC008823E4F78091B900887F883011F0B3
:10018000803111F48FEF08958EEF089590E0880F7D
:10019000991F90911003892B8093BB0084E8809372
:1001A000BC008091BC008823E4F78091100381118A
:1001B00007C08091B900887F883159F48FEF089586
:1001C000813049F48091B900887F803431F48FEF19
:1001D00008958EEF089580E008958EEF089580933E
:1001E000BB00ECEBF0E08081806880838091BC00F4
:1001F0008823E4F78091B900887F883211F48FEF6B
:1002000008958EEF0895ECEBF0E0808180698083A3
:100210008091BC0084FDFCCF0895CF93C82F80E06F
:100220000E94B0008C2F0E94C600CF9108950E94BA
:10023000030108950E94EF000895CF93C82F8CE327
:100240000E940D0180E00E941A018C2F0E941A0169
:100250000E941701CF910895CF93DF9381E20E940E
:100260001D0180E00E941D018FE70E941D0182E2B6
:100270000E941D0180E00E941D0187E00E941D0177
:100280008CE30E940D0180E40E941A01C0E0D0E0DE
:1002900004C080E00E941A012196C11584E0D807AD
:1002A000C4F381E20E941D0180E00E941D018FE7DE
:1002B0000E941D0182E20E941D0180E00E941D013A
:1002C00087E00E941D018CE30E940D0180E40E94E2
:1002D0001A01DF91CF9108950E94A7008EEA0E9433
:1002E0001D0185ED0E941D0180E80E941D0188EA24
:1002F0000E941D018FE30E941D0183ED0E941D01DC
:1003000080E00E941D0180E40E941D018DE80E9492
:100310001D0184E10E941D0180E20E941D0180E018
:100320000E941D0181EA0E941D0188EC0E941D01AE
:100330008AED0E941D0182E10E941D0181E80E9458
:100340001D018FEC0E941D0189ED0E941D0181EFAE
:100350000E941D018BED0E941D0180E40E941D0181
:1003600084EA0E941D0186EA0E941D018FEA0E9414
:100370001D010E942C010895CF93DF93883000F572
:100380006623F4F0D62FC82F8093110360931203D5
:1003900081E20E941D018D2F0E941D018FE70E94A6
:1003A0001D0182E20E941D018C2F0E941D0187E029
:1003B0000E941D018CE30E940D0180E40E941A013D
:1003C000DF91CF910895809111038F5F87708093A3
:1003D000110360E00E94BC010895CF93DF93D82FF2
:1003E0008091120390E005968038910514F4DA307C
:1003F00011F40E94E301DA3011F1D052C0E02D2F48
:1004000030E0F901EE0FFF1FEE0FFF1FE20FF31FA9
:10041000E050FF4FEC0FF11D80810E941A01909176
:1004200012039F5F90931203CF5FC53041F780E0C6
:100430000E941A01809112038F5F80931203DF9153
:10044000CF910895CF93DF93EC0103C021960E94D2
:10045000ED0188818111FACFDF91CF9108954F92FC
:100460005F926F927F92AF92BF92CF92DF92EF92A4
:10047000FF920F931F93CF93DF93CDB7DEB72A97E9
:100480000FB6F894DEBF0FBECDBFA82E6A017B0168
:10049000022F82E0A81220C01CC0802F90E001979C
:1004A00041E050E002C0440F551F8A95E2F7052E47
:1004B000000C660B770B4C215D216E217F2181E0C2
:1004C000452B462B472B09F480E0805D0E94ED010F
:1004D00001500111E2CF52C0452B462B472B39F07A
:1004E00010E035C080E30E94ED011F5F01C010E005
:1004F000101708F043C01A30A8F340C0C114D1044B
:10050000E104F104D1F0BC2C4A2C512C612C712C4B
:10051000C701B601A30192010E942E06C22ED32E5E
:10052000E42EF52EE1E0F0E0EC0FFD1FE10FF11DF0
:10053000A29EB0181124B08209C00B30E8F4E1E0AB
:10054000F0E0EC0FFD1FE10FF11D10821F5F10178F
:10055000A8F212C0E12FF0E0319781E090E08C0F1B
:100560009D1FE80FF91F80818A3010F0895C01C05F
:10057000805D0E94ED0111501111ECCF2A960FB64B
:10058000F894DEBF0FBECDBFDF91CF911F910F91C9
:10059000FF90EF90DF90CF90BF90AF907F906F90E3
:1005A0005F904F9008958F929F92AF92BF92CF929B
:1005B000DF92EF92FF926B017C010E9404054B01D8
:1005C0005C012FEFAB01BC018AE00E942F028EE29A
:1005D0000E94ED01C501B4010E9433059B01AC01ED
:1005E000C701B6010E94970420E034E244E759E4D1
:1005F0000E94C1050E940405AB01BC012FEF8AE0F7
:100600000E942F02FF90EF90DF90CF90BF90AF90AD
:100610009F908F9008954F925F926F927F92AF92CA
:10062000BF92EF92FF921F93CF93DF93CDB7DEB7C8
:10063000FE013E96E190F1903F01F2C0853209F053
:10064000EAC0C7010196D7011196EC9120ED2E0F5B
:100650002A3090F07C011FEF15C0812F880F982F52
:10066000990F990F890F8E0F10ED180FBFEFEB1A2E
:10067000FB0AD701EC9102C07C0110E080ED8E0FE7
:100680008A3058F38E2F90E0FC01B597E435F105E0
:1006900008F0C3C0EC5CFF4F0C9450065301B2E06D
:1006A000AB0EB11CF30180810E94ED013501B5C094
:1006B0005301F2E0AF0EB11CD3016D907C90772016
:1006C00034F47194619471088DE20E94ED01A301EC
:1006D000770C660B770B212F8AE00E942F023501E1
:1006E0009CC05301B4E0AB0EB11CF30140805180BB
:1006F0006280738077205CF470946094509440948E
:10070000411C511C611C711C8DE20E94ED01212FC6
:10071000B301A2018AE00E942F0235017EC053017D
:10072000F2E0AF0EB11CD3014D915C9160E070E03E
:10073000212F8AE00E942F0235016FC05301B4E0DF
:10074000AB0EB11CF3014081518162817381212F75
:100750008AE00E942F02350160C05301F2E0AF0E23
:10076000B11CD3014D915C9160E070E0212F80E1DC
:100770000E942F02350151C05301B4E0AB0EB11CF1
:10078000F3014081518162817381212F80E10E94B8
:100790002F02350142C05301F2E0AF0EB11CD3016C
:1007A0004D915C911F3F09F410E160E070E0212F52
:1007B00082E00E942F02350130C05301B4E0AB0E3D
:1007C000B11CF30140815181628173811F3F09F4A3
:1007D00010E1212F82E00E942F0235011EC053013B
:1007E000F4E0AF0EB11CD3016D917D918D919C9180
:1007F0000E94D302350111C05301B2E0AB0EB11C0F
:10080000F301808191810E942202350106C085E2B8
:100810000E94ED0102C00E94ED01FFEFEF1AFF0AF6
:10082000D7018C9181110ACFDF91CF911F91FF9059
:10083000EF90BF90AF907F906F905F904F90089532
:100840001F93CF93DF93982F990F11E0190F8530E5
:1008500018F5653608F5D62F60E0812F0E94BC019F
:10086000C0E004C08FEF0E941A01CF5FCD17D0F314
:10087000CD2F04C080E00E941A01CF5FC436D0F3B0
:1008800069E6812F0E94BC014D2F50E060E070E0CE
:1008900023E08AE00E942F02DF91CF911F910895FB
:1008A0000E946C010E942C0160E080E00E94BC016B
:1008B0008BED92E09F938F930E940B0362E381E0A4
:1008C0000E94200467E683E00E94BC0181EF92E071
:1008D0009F938F930E940B036EE183E00E9420049C
:1008E00067E687E00E94BC0186EF92E09F938F93BA
:1008F0000E940B0360E085E00E94BC018BEF92E058
:100900009F938F930E940B0367E685E00E94BC01D2
:100910008AE093E09F938F930E940B038DB79EB75D
:100920000A960FB6F8949EBF0FBE8DBFBDCF50582C
:10093000BB27AA270E94AF040C9487050E94790563
:1009400038F00E94800520F039F49F3F19F426F416
:100950000C9476050EF4E095E7FB0C947005E92FF6
:100960000E94980558F3BA17620773078407950722
:1009700020F079F4A6F50C94BA050EF4E0950B2E50
:10098000BA2FA02D0B01B90190010C01CA01A001E1
:100990001124FF27591B99F0593F50F4503E68F13C
:1009A0001A16F040A22F232F342F4427585FF3CF7D
:1009B000469537952795A795F0405395C9F77EF44E
:1009C0001F16BA0B620B730B840BBAF09150A1F097
:1009D000FF0FBB1F661F771F881FC2F70EC0BA0F1D
:1009E000621F731F841F48F4879577956795B795A5
:1009F000F7959E3F08F0B0CF9395880F08F09927A0
:100A0000EE0F9795879508950E94A00588F09F574F
:100A100098F0B92F9927B751B0F0E1F0660F771F22
:100A2000881F991F1AF0BA95C9F714C0B13091F018
:100A30000E94BA05B1E008950C94BA05672F782F8B
:100A40008827B85F39F0B93FCCF3869577956795DD
:100A5000B395D9F73EF490958095709561957F4F49
:100A60008F4F9F4F0895E89409C097FB3EF49095EF
:100A70008095709561957F4F8F4F9F4F9923A9F077
:100A8000F92F96E9BB279395F69587957795679506
:100A9000B795F111F8CFFAF4BB0F11F460FF1BC04A
:100AA0006F5F7F4F8F4F9F4F16C0882311F096E9DD
:100AB00011C0772321F09EE8872F762F05C066238B
:100AC00071F096E8862F70E060E02AF09A95660F44
:100AD000771F881FDAF7880F9695879597F90895FD
:100AE00097F99F6780E870E060E008959FEF80ECE1
:100AF000089500240A941616170618060906089584
:100B000000240A9412161306140605060895092EE9
:100B10000394000C11F4882352F0BB0F40F4BF2B58
:100B200011F460FF04C06F5F7F4F8F4F9F4F089598
:100B300057FD9058440F551F59F05F3F71F047958E
:100B4000880F97FB991F61F09F3F79F08795089573
:100B5000121613061406551FF2CF4695F1DF08C092
:100B6000161617061806991FF1CF869571056105AF
:100B700008940895E894BB2766277727CB0197F957
:100B800008950E94D4050C9487050E94790538F0D9
:100B90000E94800520F0952311F00C9470050C94B0
:100BA000760511240C94BB050E94980570F3959F5F
:100BB000C1F3950F50E0551F629FF001729FBB2754
:100BC000F00DB11D639FAA27F00DB11DAA1F649FF0
:100BD0006627B00DA11D661F829F2227B00DA11DA3
:100BE000621F739FB00DA11D621F839FA00D611D29
:100BF000221F749F3327A00D611D231F849F600D4A
:100C0000211D822F762F6A2F11249F5750409AF072
:100C1000F1F088234AF0EE0FFF1FBB1F661F771FFE
:100C2000881F91505040A9F79E3F510580F00C94C9
:100C300070050C94BB055F3FE4F3983ED4F38695B2
:100C400077956795B795F795E7959F5FC1F7FE2B69
:100C5000880F911D9695879597F90895A1E21A2E10
:100C6000AA1BBB1BFD010DC0AA1FBB1FEE1FFF1F50
:100C7000A217B307E407F50720F0A21BB30BE40BA0
:100C8000F50B661F771F881F991F1A9469F76095E7
:100C90007095809590959B01AC01BD01CF010895A1
:100CA000EE0FFF1F0590F491E02D0994F894FFCF0B
:100CB000000000000000002F0000000700070014E3
:100CC0007F147F14242A7F2A122313086462364972
:100CD0005522500005030000001C22410000412263
:100CE0001C0014083E081408083E08080000A06014
:100CF00000080808080800606000002010080402CE
:100D00003E5149453E00427F4000426151494621E3
:100D100041454B311814127F1027454545393C4A4F
:100D2000494930017109050336494949360649499F
:100D3000291E0036360000005636000008142241F5
:100D4000001414141414004122140802015109065D
:100D5000324959513E7C1211127C7F494949363E35
:100D6000414141227F4141221C7F494949417F093C
:100D70000909013E4149497A7F0808087F00417FFF
:100D800041002040413F017F081422417F40404004
:100D9000407F020C027F7F0408107F3E4141413EAC
:100DA0007F090909063E4151215E7F0919294646FE
:100DB0004949493101017F01013F4040403F1F2027
:100DC00040201F3F4038403F6314081463070870F9
:100DD00008076151494543007F41410055AA55AA82
:100DE000550041417F000402010204404040404060
:100DF000000305000020545454787F484444383898
:100E000044444420384444487F3854545418087E9D
:100E100009010218A4A4A47C7F0804047800447D7E
:100E200040004080847D007F1028440000417F40C6
:100E3000007C041804787C0804047838444444385E
:100E4000FC2424241818242418FC7C0804040848D2
:100E500054545420043F4440203C4040207C1C20FB
:100E600040201C3C4030403C44281028441CA0A09A
:100E7000A07C4464544C4400107C82000000FF00BD
:100E80000000827C10000006090906417564696F44
:100E9000444957485920436F6D70617261746F7295
:100EA00000494E204100494E2042004D6F646520AC
:100EB00041203C2078203C204200322E3256000057
:00000001FF
