S00E000054585F4156522E7372656322
S11300000C9434000C9449000C9449000C9449005D
S11300100C9449000C9449000C9449000C94490038
S11300200C9449000C9449000C9449000C94490028
S11300300C9449000C9449000C9449000C94490018
S11300400C9449000C9449000C9449000C94490008
S11300500C9449000C9449000C9449000C944900F8
S11300600C9449000C94490011241FBECFEFD8E032
S1130070DEBFCDBF11E0A0E0B1E0ECEFF0E002C0E4
S113008005900D92AE30B107D9F70E946A000C9426
S11300907C000C9400009093C5008093C40088E118
S11300A08093C1008EE08093C20008959091C000B7
S11300B095FFFCCF8093C6000895CF93DF93EC01A6
S11300C003C021960E94560088818111FACFDF91E6
S11300D0CF91089587E690E00E944B0080E091E084
S11300E00E945D002FEF83ED90E32150804090400B
S10F00F0E1F700C00000F2CFF894FFCF4D
S11100FC48656C6C6F2C205553415254210002
S9030000FC
