S015000066697273745F70726F6A6563742E7372656391
S11300000C9434000C943E000C943E000C943E007E
S11300100C943E000C943E000C943E000C943E0064
S11300200C943E000C943E000C943E000C943E0054
S11300300C943E000C943E000C943E000C943E0044
S11300400C943E000C943E000C943E000C943E0034
S11300500C943E000C943E000C943E000C943E0024
S11300600C943E000C943E0011241FBECFEFD8E048
S1130070DEBFCDBF0E947D000C9482000C94000072
S11300808AB184618AB908955C9A8CEB92E05A9A99
S1130090E7ECF0E03197F1F700C000005A98E7EC84
S11300A0F0E03197F1F700C00000019781F7FFEF0E
S11300B029E688E1F15020408040E1F700C00000CB
S11300C05C988CEB92E05A9AE7ECF0E03197F1F708
S11300D000C000005A98E7ECF0E03197F1F700C057
S11300E00000019781F7FFEF29E688E1F1502040F5
S11300F08040E1F700C0000008950E9440000E9483
S10B01004400FDCFF894FFCF89
S9030000FC
