:100000000C9434000C943E000C943E000C943E0082
:100010000C943E000C943E000C943E000C943E0068
:100020000C943E000C943E000C943E000C943E0058
:100030000C943E000C943E000C943E000C943E0048
:100040000C943E000C943E000C943E000C943E0038
:100050000C943E000C943E000C943E000C943E0028
:100060000C943E000C943E0011241FBECFEFD8E04C
:10007000DEBFCDBF0E9491000C9496000C9400004E
:100080008AB184618AB908958BB180618BB920E00F
:1000900030E014C08BB184608BB987EB91E001979D
:1000A000F1F700C000008BB18B7F8BB987EB91E03B
:1000B0000197F1F700C000002F5F3F4F283C31054A
:1000C0004CF39FEF29E688E1915020408040E1F712
:1000D00000C000008BB18F7E8BB920E030E014C0EF
:1000E0008BB184608BB987EB91E00197F1F700C089
:1000F00000008BB18B7F8BB987EB91E00197F1F713
:1001000000C000002F5F3F4F283C31054CF39FEFAC
:1001100029E688E1915020408040E1F700C00000CE
:1001200008950E9440000E944400FDCFF894FFCF44
:00000001FF
