S01700004763634170706C69636174696F6E312E737265635B
S11300000C94EC040C9409050C9409050C94090552
S11300100C9409050C9409050C9409050C94090524
S11300200C9409050C9409050C9409050C94090514
S11300300C9409050C9409050C9409050C94090504
S11300400C9409050C9409050C9409050C940905F4
S11300500C9409050C9409050C9409050C940905E4
S11300600C9409050C940905BF000303030403055C
S113007004070D00FE09FE0BFF017F02FB0953205C
S11300800500EE072107D2C3C7130122089DDE87AE
S1130090844500230FCEC24F28CBA1128A1C2AA16B
S11300A02C002412E6BA5F3476894C62C359641278
S11300B0B94563002510CEC24F8C3249A1496294E0
S11300C094092D022610CEC2974C1292C46493490F
S11300D064A24922270823DB8F841202280C64BF00
S11300E097442411E94D2413290D64BF874C24132C
S11300F0E9452411012A0EBEC65F48925212555298
S11301004431002B0BB6C6975074280945002C08BF
S113011023BB8F8412022D0796CEC7A1002E069210
S1130120C307012F0EE6BEA79A504D2813AA0985CE
S113013000300CCEC2978C22E249421301310A4CA2
S1130140C397E41011E901320DCEC20F454412CA1F
S1130150D4620703330ECEC20F4544128AA62492FA
S11301608402340FCEC29F6C29228A4842129B50CB
S113017002350ECEC20F891425858424928402365A
S11301800ECEC2D748261456444C120A00370DCE60
S1130190C2C7C1169409654235003810CEC20F4556
S11301A044924842A4488924A100390DCEC20F4587
S11301B0C42429AA8946003A07B2C30791003B091F
S11301C043BB8FBA8412023C08CEC2A74C571D3DD4
S11301D008AECAC7A17C283E09CEC28754371D0188
S11301E03F0FD6C20F454412CA14E530A10800409F
S11301F00FCEC2D7484289482A2189652225410E5B
S1130200CEC297508D14114524B79900420DCEC229
S11302104745C414A988982E00430CCEC2D748423F
S1130220D455229A00440CCEC207491411F1294234
S113023002450ECEC2C7213614452AA288507646FE
S11302400FCEC2C7213614452AA288501100470D8B
S1130250CEC2D74842542991244A04480BCEC287BF
S113026088D361C449004909CEC28749A84F064AC8
S11302700BCEC2174DA88B4E23004B0ECEC28788DF
S113028014918498243A91044C08CEC28750BF1D1F
S11302904D0FCEC247707438442293C86C4D004E43
S11302A00CCEC2878C4492E8C436134F0BCEC20FD7
S11302B045C44F120A00500BCEC24745C474116A9C
S11302C004510DDEBA0F45C4538532A14A03520EC0
S11302D0CEC24745C4749184244A2401530ECEC22D
S11302E00F45441C128724090500540BCEC2C74590
S11302F01212EA1300550ACEC287883F49280056D5
S113030010CEC2876C16D11292C466426908005797
S113031010CEC2876C4B6412B99024214904005852
S11303200FCEC2878824918486C251448924590CF3
S1130330CEC28788249184867A025A0BCEC2C74DD6
S113034051A628931D5B08E5BEC74DFF565C0EE61B
S1130350BE87502A54154A85AA42015D08E5BE4766
S11303604DFF765E089EDA978C22125F0796BEC711
S1130370A100600823DB8744240A610CBEC20F4934
S113038022949C489202620ED6C287508B644262C9
S1130390AA502400630BBEC20F4544D424A10064B8
S11303A00CD6C2A71609A5C465A200650DBEC20F6E
S11303B045443A0C45120A00660DD6C2DF481212B3
S11303C08A4C429D00670CCEBACF89CB449124A1BC
S11303D000680CD6C287508B6442E24900690BD690
S11303E0C297500E1AEAC9006A0CE5BA9F324D6FE3
S11303F014C904006B0FD6C2875013292209912413
S11304004A24016C08D6C2CF507F326D0FBEC2871A
S11304104472B8442691496492006E0ABEC287446D
S11304203221F1246F0ABEC20F45C4938402700EB8
S1130430CEBA874432213155288A4200710BCEBA94
S11304408F8452E2325154720ABEC2C7445211EA36
S113045006730BBEC20F454465925000740CCEC2A5
S11304608F505612EA229A007509BEC287882F134C
S113047005760DBEC2876C16D1129B4943007710D6
S1130480BEC2876C12994426918B24248900780D6E
S1130490BEC28788141A0A472192007911CEBA87FE
S11304A06C16918424B199341411CD007A09BEC21A
S11304B0C769A66D747B0CE6BEDF48A86936156A69
S11304C01D7C07E2BFC787017D0DE6BEC754A87532
S11304D036126A9A017E0AA6DA8FA822294900A058
S11304E008A6BE47507830A107D2BB07E970A21016
S11304F0CEBE6F8422A28424A1D944420A02A30C52
S1130500CEC2D748A21B4D183B18A40CB6C687E828
S1130510100965398404A50ECEC287884942318901
S11305204C421100A608E2BFC7617818A710DDBAD3
S1130530CF4425368AE8129A45542600A80795E246
S1130540878422A91357BED72C25245192C4243161
S11305508948252D3602AA0BC5CACF506291500F87
S113056003AB09A6CA8F84A24922AC08A6C6C7A1B8
S1130570A800AD0714CFC72100AE1457BED72C2551
S113058022924C24294A928924B7D80800AF0796AE
S1130590E2C7A100B00AA5DACF4442914C00B10CE5
S11305A0C6C29750742809458702B20BBDD2CF4406
S11305B04D248A1D06B30CBDD2CF444D24A4482635
S11305C000B40824DB97442906B50CCEBA8788A763
S11305D0C324321402B610CEC2CFA112A9688A88ED
S11305E022A2882822B70692CF0701B80824BB8F1D
S11305F04C5401B9073BD34F450FBA0BC5CACF447E
S1130600C222191F06BB0BA6CA87442451A1480065
S1130610BC13EEBA8F6CA82952194964A388282206
S1130620AA4900BD11EEBA8F6CA8454299454612FD
S1130630A1485629BE15EEBACF4822934A2493CA3C
S113064048221B454411514D02BF0FD6BA97500E94
S113065013CA144524090500C010DEC2C7540E1382
S1130660CA48115144729B09C110DEC2DF480E13FF
S1130670CA48115144729B09C211DEC2D74822876D
S11306800865A4882822B9CD04C310DEC28F641D76
S113069024949122A288E43613C410DEC28FEE1093
S11306A0A18C14114524B79900C510DEC2974C12D1
S11306B013AA9122A288E43613C6114FC25769388F
S11306C08BC8229488A814128508C70DDEBAD748AF
S11306D042D455229AA901C80FDEC2C7540E39C4A8
S11306E086155144283BC90FDEC2DF480E39C48643
S11306F0155144283BCA0FDEC2D748223EC4861592
S11307005144283BCB0EDEC28FCE87D8B0228A0854
S11307106507CC0BDEC2C7540E3109F564CD0BDE80
S1130720C2DF480E3109F564CE0BDEC2D74822364B
S113073009F564CF0ADEC28FCE26A19E0CD0114FDC
S1130740C20F4D1452115994242289284402D10D08
S1130750DEC28F645D462249746213D20DDEC2C7C5
S1130760540EA288F824A100D30DDEC2DF480EA2E5
S113077088F824A100D40DDEC2D74822A788F82423
S1130780A100D50DDEC28F641D4211F1494201D68C
S11307900CDEC28FEE14119F241400D70BAECA874F
S11307A0484293514402D810DEBE6F8422A2540EF4
S11307B0950A49428902D90CDEC2C7540E11F1933D
S11307C08402DA0CDEC2DF480E11F1938402DB0CE2
S11307D0DEC2D7482216F1938402DC0BDEC28FCE30
S11307E0227E925000DD0FDEC2DF480E119124926A
S11307F0D0502700DE0DCEC287505811315D84429F
S113080000DF0ED6C2CF48A24B48A2C48B0400E03E
S11308100FDEC28F541A07912442C9892429E10F9B
S1130820DEC2A74C1807912442C9892429E20FDEAD
S1130830C2978C940E21498492134952E310DEC26C
S1130840574A251487902442C9892429E40DD6C225
S11308508FEE2489507222490AE510DEC2974C12A9
S113086093834812A1E4449214E60EBEC2CF41120F
S113087092442CA288E400E70CCEBA0F4544D42459
S1130880A1A901E810DEC28F541A075144A4C35031
S113089024A100E910DEC2A74C18075144A4C35098
S11308A024A100EA10DEC2978C940EA1884887A187
S11308B0484201EB0ED6C28FEE1411E930144928D8
S11308C000EC0BDEC28F541A070DF564ED0BDEC28B
S11308D09F621C36D49301EE0CDEC2978C940E19E1
S11308E0EAC900EF0BD6C287443B64A82703F01083
S11308F0D6C2874434920447121227090500F10E28
S1130900DEC2574A2514974826249E04F20EDEC2FE
S11309108F541A0751443C492800F30EDEC2A74CF9
S1130920180751443C492800F40EDEC2978C940EFB
S1130930A18878925000F50FDEC2574A25148750DB
S1130940443C492800F60CD6C28FEE14114F120A0B
S113095000F70DC6C297500E39D421421100F80E8B
S1130960CEBE6F8422A21C2A2409250AF90CDEC2F9
S11309708F541A8788F83251FA0CDEC2A74C1887B4
S113098088F83251FB0CDEC2978C942EE2CB4401E2
S1130990FC0AD6C28FCE22BE4C14FD15EEBAA74C6B
S11309A01887C866114948129B494311D10C00FEAF
S11309B00FE6BA87508B644262AA50148500FF1276
S11309C0E6BA8FCEB259441292C466D2504434036C
S11309D000000004FFFF000011241FBECFEFD8E089
S11309E0DEBFCDBF11E0A0E0B1E0E6E7F0E202C077
S11309F005900D92A838B107D9F722E0A8E8B1E034
S1130A0001C01D92AE33B207E1F70E94CA0F0C94E5
S1130A1039100C9400000F931F93DC01ED91FC91AD
S1130A201197208992960D911C919397629FB00122
S1130A301124660F771F660F771F660F771F060F47
S1130A40171F60E00E947D0D1F910F910895EF9292
S1130A50FF920F931F93CF93DF938C01DC01949645
S1130A60FC9094979596DC919597ED91FC91E18893
S1130A70C0E04D2F6C2FC8010E940B05CF5FDF5FD4
S1130A80CF1510F4DE15A8F3DF91CF911F910F91CC
S1130A90FF90EF900895FC01A081B18150969C9144
S1130AA044A1949FA0011124440F551F440F551FC6
S1130AB0440F551F60E070E082A193A10E943210A0
S1130AC00895CF93DF93EC010E942705CE010E9485
S1130AD0C10DDF91CF91089521E0FC01208388E8C6
S1130AE091E00895CF92DF92EF92FF920F931F93BC
S1130AF0CF93DF931F92CDB7DEB77C016B018901E1
S1130B009A014DEF5CE061E57EE00E948E0ECE011D
S1130B1001960E946C0586012FED3AE04981BC01E3
S1130B20C7010E94130C0F90DF91CF911F910F9179
S1130B30FF90EF90DF90CF900895860F911DFC01F8
S1130B4084910895FC01E60FF11D849190E03196A3
S1130B50982F8827E4918E0F911D089580E090E0EE
S1130B60089580599F4FFC018081082E000C990B39
S1130B70019608950F931F93CF93DF93EC018B019C
S1130B8060E0C8010E949D05888361E0C8010E945D
S1130B909D05898362E0C8010E949D058A8363E004
S1130BA0C8010E949D058B8364E0C8010E949D05D5
S1130BB08C8365E0C8010E949D058D8366E0C801B1
S1130BC00E949D058E8367E0C8010E949D058F8366
S1130BD068E0C8010E949D05888769E0C8010E94F9
S1130BE09D0589876AE0C8010E949D058A876BE09C
S1130BF0C8010E949D058B876CE0C8010E949D0579
S1130C008C876DE0C8010E949D058D876EE0C80148
S1130C100E949D058E876FE0C8010E949D058F8705
S1130C2060E1C8010E949D05888B61E1C8010E94B2
S1130C30A2059A8B898B63E1C8010E94A2059C8B53
S1130C408B8B65E1C8010E94A2059E8B8D8BDF9181
S1130C50CF911F910F910895DC011A964C911A9728
S1130C60ED91FC911197249130E0042E02C035954A
S1130C7027950A94E2F7822F942F960F983080F0EC
S1130C8088E0841B31961196FC93EE93E491F0E096
S1130C9002C0EE0FFF1F8A95E2F78E2F822B985029
S1130CA021E030E002C0220F331F6A95E2F72150A1
S1130CB01A969C93822308950F931F93CF93DF93E7
S1130CC0EC018C01085B1F4FF8017183608312866D
S1130CD073966081C8010E942C06F801808774967F
S1130CE06081C8010E942C06F8018187BC9680812E
S1130CF0F801848791E0811190E0C85BDF4F9D8704
S1130D00DF91CF911F910F910895CF93C62F0E9429
S1130D102C06C15021E030E002C0220F331FCA95D7
S1130D20E2F7821BCF910895213049F018F0223068
S1130D3059F00FC0840F911D47FD9A950895860FB1
S1130D40911D67FD9A950895841B910947FD93951C
S1130D500895861B910967FD93950895213049F004
S1130D6018F0223059F00FC0860F911D67FD9A9537
S1130D700895841B910947FD93950895861B910955
S1130D8067FD93950895840F911D47FD9A950895E5
S1130D906F927F928F929F92AF92BF92CF92DF9287
S1130DA0EF92FF920F931F93CF93DF937C01162F43
S1130DB0742EFC01E85BFF4F9680D781F701E85B56
S1130DC0FF4FC085C9191C1710F06C2E01C0612E8D
S1130DD0F701E85BFF4FC480D58006858D2E202F58
S1130DE04D2F692D828193810E94AE065C01202FD4
S1130DF04D2F692DC6010E949406772071F0F701EA
S1130E00E85BFF4F2485BC962083262D30E0AC019F
S1130E10B501C7010E94060A10C0F701E85BFF4F45
S1130E20238521110AC02585BC962083262D30E018
S1130E30AC01B501C7010E94060A1C1720F01C1B57
S1130E40DF5F912CBBCF612F690DF701E85BFF4F8A
S1130E5066838782DF91CF911F910F91FF90EF906E
S1130E60DF90CF90BF90AF909F908F907F906F90C6
S1130E7008956F927F928F929F92AF92BF92CF927A
S1130E80DF92EF92FF920F931F93CF93DF93EC01C6
S1130E907C0188E4E80EF11CCE010E945C06FE0190
S1130EA0EF5AFF4FC0803C966081C7010E948506BF
S1130EB0782EFE01E25AFF4F6081C7010E94850629
S1130EC0182FFE01E15AFF4F6081C7010E94850679
S1130ED0D82EF701608416140CF09BC006851C0DF7
S1130EE01195202F412F672D828193810E94AE0698
S1130EF05C01F70193838283202F412F672D848126
S1130F0095810E949406F70195838483013089F0CA
S1130F1028F0023001F10330A1F143C09501260D00
S1130F20311D67FC3A958C010C0D111DC7FC1A95F7
S1130F303AC0A5014C195109C7FC539595012F5F7F
S1130F403F4F8C01060D111D67FC1A95BA016F5FA6
S1130F507F4F5B0128C0A5014619510967FC5395D1
S1130F6095012F5F3F4FBC016C197109C7FC739544
S1130F708C010F5F1F4FCB010196FA0131965F017F
S1130F8012C095012C0D311DC7FC3A95AC014619D0
S1130F90510967FC53958C010F5F1F4FCA010196DD
S1130FA002C08C019501AC01B501CE010E94BA0AC0
S1130FB0882379F1FE01E85BFF4F16821782FE0158
S1130FC0E75AFF4F6081C7010E942C06082FFE01DB
S1130FD0E65AFF4F6081C7010E942C06182F40E09B
S1130FE0602FCE010E94C80641E0612FCE010E940D
S1130FF0C80661E0C7010E942C068111F0CFFE01F2
S1131000E85BFF4F87818C15D4F28485CC58DF4F81
S113101088838D2DDF91CF911F910F91FF90EF90D9
S1131020DF90CF90BF90AF909F908F907F906F9004
S11310300895EF92FF920F931F93CF93DF93FC01D8
S1131040EC5BFF4FC081D18167966F3F710509F05A
S113105038F56136710530F0B69680819181C80FFC
S1131060D91F0AC06134710538F0FC01E859FF4FFB
S113107080819181C80FD91FCE010196FC01249172
S1131080222309F43CC0FE01249130E06217730767
S113109011F4019639C0FC018491C80FD11DECCF25
S11310A08B01FC01E459FF4F80819181C80FD91F46
S11310B07E0160E0C7010E94A205C80FD91F62E04B
S11310C0C7010E94A205F4E0EF0EF11C80179107FE
S11310D080F3FE01849190E0982F88273196E49163
S11310E08E2B009779F00817190719F4CE0103968F
S11310F00BC0FE013296E491CE0FD11DEACF80E001
S113110090E002C080E090E0DF91CF911F910F91B9
S1131110FF90EF900895CF93DF93EC01FC01E65B21
S1131120FF4F71836083329651834083B9010E94DB
S11311301908009741F0BC01CE010E943907082E1E
S1131140000C990B02C080E090E0DF91CF910895EC
S1131150CF92DF92EF92FF920F931F93CF93DF937F
S1131160EC018B017A016901FC01EA5AFF4F80818D
S1131170813089F028F08230C9F0833011F12BC01E
S1131180FE01EA5BFF4F0190F081E02DCE0109954D
S1131190E80EF91E20C0FE01EA5BFF4F0190F081CA
S11311A0E02DCE010995081B190B15C0FE01EA5B61
S11311B0FF4F0190F081E02DCE010995E81AF90A5C
S11311C00AC0FE01EA5BFF4F0190F081E02DCE01E1
S11311D00995080F191F9601A701B801CE010E94B5
S11311E08B08DF91CF911F910F91FF90EF90DF90CB
S11311F0CF900895AF92BF92CF92DF92EF92FF9279
S11312000F931F93CF93DF93EC015B016A01890174
S11312100E94500CE12CF12CEA81FB81D8016C91E5
S1131220CE0109958F3FBFEF9B0739F10F5F1F4F29
S11312308E3F2FEF920781F39C01A601B501CE01E9
S11312400E94A8089C01FE01EA5AFF4F9081913048
S113125049F028F0923049F0933051F00BC0A20EBF
S1131260B31E08C0C20ED31E05C0A21AB30A02C020
S1131270C21AD30AE20EF31ECFCFC701DF91CF917A
S11312801F910F91FF90EF90DF90CF90BF90AF90A0
S11312900895E3E4FCE0DC011396FC93EE931297CB
S11312A00E94FA080895FC01EC5BFF4F2081318114
S11312B0232BE1F1B09620813C9620833B9740811B
S11312C03C96408332973081332381F1313079F475
S11312D039973081231714F43A963083FC01E95985
S11312E0FF4F2081241714F53A9620830895022E87
S11312F0000C330BFC01EF59FF4FE081DC01AD59C9
S1131300BF4F5C91652F052E000C770B6E0F711D7E
S1131310E7FD7A95261737071CF41D96E50FEC9325
S1131320541724F4FC01EF58FF4F50830895FC0137
S1131330E159FF4F10820E94530908958A5B9F4F21
S11313402EEA35E0FC013183208308958A5B9F4FA8
S113135021EB35E0FC01318320830895CF93DF93A3
S1131360FC01EC5BFF4F208131812617370751F0D8
S1131370EC0171836083895A9F4F0E94BA05CE01A4
S11313800E945309DF91CF910895CF93DF93EC012D
S1131390A881B981EB01E881F981EA0FFB1FEA1703
S11313A0FB0738F4A217B30718F4F901319701C009
S11313B0DA01A217B307A8F44E175F07A0F4A41725
S11313C0B50708F0AD012E173F0708F09F01FC0197
S11313D051834083241B350BEB013983288381E03F
S11313E003C080E001C080E0DF91CF9108950F93A6
S11313F0DC019A96ED91FC919B974E1B5F0B5E96D8
S1131400ED91FC915F9709950F910895EF92FF92EA
S11314100F931F93CF93DF9300D000D000D0CDB7AC
S1131420DEB77A8369835C834B833E832D83FC011F
S1131430E259FF4F2081222309F474C02D813E819B
S11314402115310509F46EC022303105B0F00230A7
S113145041F4621B730B9B012F5F3F4F3A83298337
S11314600CC0033051F44B815C81DA01A21BB30B35
S11314709D012F5F3F4F3C832B837C01102F117004
S113148000FD1DC0FC0120AD31AD8B819C81821714
S1131490930708F447C022AD33AD8217930708F0D1
S11314A041C026A937A944A955A9BE016B5F7F4F46
S11314B0CE0101960E94C509811123C033C0DC010D
S11314C0D4962D913C91D59789819A81821793075F
S11314D048F1D6962D913C91D7978217930710F532
S11314E0DA962D913C91DB97D8964D915C91D997E2
S11314F0BE016B5F7F4FCE0103960E94C50988230E
S113150089F0D7019096ED91FC9191970480F58133
S1131510E02D2D813E814B815C8169817A81012F8F
S1131520C701099526960FB6F894DEBF0FBECDBF4E
S1131530DF91CF911F910F91FF90EF90089546177F
S1131540570740F48217930768F02417350760F4AF
S113155081E008958217930748F42417350740F46F
S113156081E0089581E0089580E0089580E0089581
S113157080E00895CF92DF92EF92FF920F931F9332
S1131580CF93DF93EC017B01690198016AAD7BADD8
S113159088AD99AD0E949F0A882341F06EA97FA966
S11315A09601A7018CA99DA90E949F0ADF91CF9162
S11315B01F910F91FF90EF90DF90CF9008950F93BC
S11315C01F93CF93DF93DC01CA01542F5770C1E0FE
S11315D0D0E0052E02C0CC0FDD1F0A94E2F71C2FC9
S11315E0FD01EC58FF4FE081E23010F040E001C013
S11315F04C2FE13009F410E0887FED91FC911197B4
S1131600C089C89FF001C99FF00D112492968D9155
S11316109C9193976E0F7F1FFC01E60FF71F01113A
S113162008C08081842B8127819321503109C9F717
S113163021C09081942B912790835F5F5770215034
S11316403109511110C096968D919C919797E80F8E
S1131650F91FED01CC58DF4F8881823008F441E056
S1131660813021F404C0440F110F01C011E0211591
S11316703105F9F6DF91CF911F910F910895CF9322
S1131680DF93FC01A081B18184A190E09C01220F31
S1131690331F220F331F220F331F31A720A7509669
S11316A02C91509730E0220F331F220F331F220F4B
S11316B0331F37A326A375A1272F30E0A901440FB8
S11316C0551F440F551F440F551F53A742A7280FFA
S11316D0391F51966C915197C62FD0E0C217D3078A
S11316E018F4CE01871B9109880F991F880F991F41
S11316F0880F991F55A744A7840F951F97A786A7FE
S113170054968D919C91559791AB80AB56968D9143
S11317109C91579793AB82ABDF91CF9108950E9430
S11317203F0B08950F931F93CF93DF93EC01FC01BC
S1131730EE5BFF4F008111812EAD3FAD32974081AA
S113174051816CAD7DAD0E94BA0A811104C0C259A9
S1131750DF4F18822FC081E0FE01E259FF4F8083E2
S11317602CA93DA98CAD9DAD2817390710F49DAB6C
S11317708CAB2EA93FA98EAD9FAD8217930710F4B1
S11317809FAB8EAB28AD39ADFE01E05CFF4F80818D
S113179091812817390710F499AF88AF2AAD3BAD72
S11317A0FE01EE5BFF4F808191818217930710F455
S11317B09BAF8AAFDF91CF911F910F910895FC01E8
S11317C015AA14AA80A991A997AB86AB84A595A55F
S11317D091AF80AF86A597A593AF82AFCF010E944A
S11317E0920B08950F930E94F7090F910895DC015D
S11317F0DD961C921E92DC97FC01E05CFF4F118287
S113180010822FEF3FEFFC0137AF26AFEE5BFF4FA7
S1131810318320839096ED91FC9191970280F3811E
S1131820E02D099508950F931F93CF93DF93EC0157
S1131830FC01EC5BFF4F118210823F8F2E8F7BA344
S11318406AA34CA31DA23F961082B09610823497CF
S11318501082359681E080833196808319A308A392
S1131860D801ED91FC91CE010995CE010E94F70BB0
S1131870CE010E949E09CA5ADF4F1882DF91CF9190
S11318801F910F910895662329F06A3031F0862F55
S113189090E008958FEF9FEF08958FEF9FEF0895E5
S11318A0FC01108E0895462FDC011896ED91FC91F1
S11318B0199720E030E060E2099508959A01DC016F
S11318C01896ED91FC911997462F67E109950895B3
S11318D0CF93DF931F92CDB7DEB76983AE014F5F1D
S11318E05F4F61E00E945E0C0F90DF91CF910895ED
S11318F0462FDC011696ED91FC91179720E030E01D
S113190065E109950895462FDC011696ED91FC9149
S1131910179720E030E066E1099508959A01DC010B
S11319201696ED91FC911797462F67E10995089556
S1131930DC011696ED91FC91179720E030E040E031
S113194068E109950895DC011696ED91FC911797CD
S113195020E030E040E069E109950895EF92FF92BC
S11319600F931F93CF93DF931F92CDB7DEB77C0104
S11319708B01D8016D918D016731B9F018F465318F
S113198030F433C06A31E8F06E3F31F12EC0FD010E
S113199041918F014983D7011696ED91FC911797D8
S11319A020E030E0C7010995E4CFFD0181918F016A
S11319B08983AE014F5F5F4F61E0C7010E948E0CC7
S11319C0D8CFD7011696ED91FC91179720E030E01F
S11319D040E0C7010995CDCFFD0141918F014983B5
S11319E069E2C7010E946C0EC4CF0F90DF91CF91C2
S11319F01F910F91FF90EF900895EF92FF920F9334
S1131A001F93CF93DF938C01C62FD42F79016631B6
S1131A10A1F028F46431E9F0653131F025C0673173
S1131A20A9F06A3108F515C060E00E94530C6D2FCF
S1131A30C8010E94680C81E018C060E00E94530C49
S1131A406D2FC8010E94680C81E00FC061E00E9404
S1131A50530CD8011896ED91FC91199797014D2FCD
S1131A606C2FC801099501C080E0DF91CF911F91CF
S1131A700F91FF90EF900895FC0171836083FB0147
S1131A802289FC01248B0895CF93DF93EC01EA852E
S1131A90FB8520E030E040E068E20995EE81FF81BB
S1131AA020E030E040E064E1CE01099541E06BE4E0
S1131AB0CE010E946C0EE881F981448169E2CE0175
S1131AC00E946C0E40E06BE4CE010E946C0EE88133
S1131AD0F981448169E2CE010E946C0E41E06BE41D
S1131AE0CE010E946C0EE881F981458169E2CE0144
S1131AF00E946C0EDF91CF9108950F931F93CF93A3
S1131B00DF9300D000D01F92CDB7DEB76C834D8336
S1131B102B831A830983DC011496ED91FC911597AC
S1131B209E012F5F3F4F41E06FE009950F900F90AA
S1131B300F900F900F90DF91CF911F910F91089507
S1131B40DC011496ED91FC91159720E030E040E023
S1131B5069E009950895DC011496ED91FC911597BF
S1131B6020E030E040E06AE009950895462FDC016A
S1131B701496ED91FC91159720E030E06BE0099507
S1131B800895DC011496ED91FC91159720E030E066
S1131B9040E060E109950895EF92FF920F931F933F
S1131BA0CF93DF938C01C42F79016D30B9F018F411
S1131BB06B3031F06EC06E3069F16F30D1F169C0B5
S1131BC0411106C069E371E00E94AE0C81E062C07D
S1131BD064E371E00E94AE0C81E05CC041110DC071
S1131BE069E271E00E94AE0CD801ED91FC9111976D
S1131BF0828954968C9381E04DC06EE171E00E941D
S1131C00AE0CD801ED91FC911197838954968C9375
S1131C1081E040C00E94980C61E8C8010E94780CE1
S1131C206C2FC8010E94830CC8010E94A30C81E0A0
S1131C3031C00E94980CF701D381DD0FDD0FDD0F59
S1131C40D80154968C91D80F6D2F62956F70606196
S1131C50C8010E94780C6D2F6F70C8010E94780C27
S1131C60F7016481606BC8010E94780CD701129659
S1131C706C9112974D915C91660F660F660FC801C7
S1131C800E948E0CC15091F7C8010E94A30C81E000
S1131C9001C080E0DF91CF911F910F91FF90EF90F1
S1131CA00895CF93DF93EC01693031F466E071E07D
S1131CB00E943C0D81E00DC06A3049F40E94440D3D
S1131CC06EE371E0CE010E94AE0C81E002C00E947E
S1131CD0CC0DDF91CF910895DC011A96ED91FC9122
S1131CE01B9720E030E00995089580E00895FC01F9
S1131CF01182108285E79EE095838483978386838F
S1131D009187808793878287158A108E148615861B
S1131D10168617868FEF868B828F0895AF92BF92B7
S1131D20CF92DF92EF92FF920F931F93CF93DF93A3
S1131D30EC015B016A0179010E94770EBD82AC82DD
S1131D40DF82CE82F986E8861B870A87CE010E944D
S1131D50A00DDF91CF911F910F91FF90EF90DF9035
S1131D60CF90BF90AF9008951092B90080E2809315
S1131D70B80008950F931F9394EA9093BC004FEF1B
S1131D8050E060E070E002C0B901A8019091BC008D
S1131D90992354F08A019B01015011092109310949
S1131DA0452B462B472B81F79091B900987F9830AB
S1131DB011F0903109F78093BB0094E89093BC0034
S1131DC04FEF50E060E070E002C0B901A8019091CB
S1131DD0BC00992354F08A019B0101501109210987
S1131DE03109452B462B472B81F79091B900987FF9
S1131DF0903211F09835C9F494E99093BC004FEFF8
S1131E0050E060E070E002C0B901A8019091BC000C
S1131E1094FFB2CF8A019B010150110921093109B4
S1131E20452B462B472B81F7A7CF1F910F91089580
S1131E3084E98093BC008FEF90E0A0E0B0E002C0A2
S1131E40DB01CA012091BC0024FF0AC0AC01BD0122
S1131E504150510961097109892B8A2B8B2B81F718
S1131E6008958093BB0084E88093BC008FEF90E0DA
S1131E70A0E0B0E002C0DB01CA012091BC00222333
S1131E8064F0AC01BD014150510961097109892B0C
S1131E908A2B8B2B81F7DB01CA01892B8A2B8B2B95
S1131EA039F08091B900887F883221F081E008956B
S1131EB081E0089580E008950F931F93CF936831D4
S1131EC0F9F028F46431C1F0673181F004C069315C
S1131ED0E9F06032F9F080E01EC089010F5F1F4F06
S1131EE0F90180810E94310F4C2F9801CFEFC40F6C
S1131EF04111F3CF81E00FC00E94B40E81E00BC00A
S1131F00FC0186890E94BA0E81E005C00E94180F68
S1131F1081E001C081E0CF911F910F9108956A3251
S1131F2011F118F4693261F104C06B3221F06C32A2
S1131F3069F180E00895242F30E0A4E6B0E00E9427
S1131F40231024EF31E040E050E00E9401102332DE
S1131F50F8F4822F0197F1F781E008959AE19A95B8
S1131F60F1F700C0482F8FEF840F4111F7CF81E0C4
S1131F700895EFECF7E03197F1F700C00000482F27
S1131F808FEF840F4111F5CF81E0089581E008952A
S1131F9081E008952FE83FE04CE55FE060E071E008
S1131FA088EC91E00E9472058CE38093DE0188EC5A
S1131FB091E00E94AB0D60E088EC91E00E94B60DC8
S1131FC088EC91E00E944B0568E670E088EC91E0B3
S1131FD00E94AE0988EC91E00E94970988EC91E098
S1131FE00E94A60925E731E040E050E060E070E09F
S1131FF088EC91E00E94490988EC91E00E94610517
S1132000FFCFA1E21A2EAA1BBB1BFD010DC0AA1F04
S1132010BB1FEE1FFF1FA217B307E407F50720F04D
S1132020A21BB30BE40BF50B661F771F881F991FC8
S11320301A9469F760957095809590959B01AC0111
S1132040BD01CF010895A29FB001B39FC001A39F1A
S1132050700D811D1124911DB29F700D811D1124DD
S1132060911D0895DC0101C06D9341505040E0F78B
S10920700895F894FFCF6F
S11320768F0BDF0BF20B0001140A64643232000981
S11320863D0000042896080420244000200018156A
S1132096A015C015D3160019FF1815A115C815D318
S11320A6160019FF1815AE19FF1815AF19FF1815E4
S11320B6AE15D5168015A8161F15D316001540158E
S11320C6AD168B15331520160015A115C815DA168D
S11320D6121581168015D9162215DB1628152E150C
S11320E6A415A619FF42696E205069636B696E6771
S10B20F620526F626F740000B8
S9030000FC
